:0400000002003F3289
:03000B00026591FA
:20005200900003747AF07470A3F07480A3F09000067481F07470A3F07480A3F0900001E431
:03007200F0A3F008
:0300C20002000E2B
:03000E000200C528
:2000C5001201837488C0E07470C0E07480C0E01267C5158115811581748BC0E07470C0E0AE
:2000E5007480C0E01267C515811581158174B6C0E07470C0E07480C0E01267C5158115811B
:200105001581900003E0FDA3E0FEA3E0FFE4C0E0C0E0C0E004C0E0C005C006C00774E8C0FB
:20012500E07403C0E074C7C0E07470C0E07480C0E090018A120280E58124F4F58190000697
:20014500E0FDA3E0FEA3E0FFE4C0E0C0E0C0E004C0E0C005C006C00774E8C0E07403C0E0ED
:2001650074D1C0E07470C0E07480C0E0900216120280E58124F4F5811208ED80FE227580B1
:200185000075900022AD82AE83AFF0900001E0F5F0A3E045F070F49000017401F0E4A3F055
:2001A500C005C006C00774D8C0E07470C0E07480C0E01267C5E58124FAF581900001E4F047
:2001C500A3F0900001E0F5F0A3E045F070F49000017401F0E4A3F07457C0E0E4C0E074E85D
:2001E500C0E07470C0E07480C0E01267C5E58124FBF581900001E4F0A3F0AE806306FF8EED
:2002050080AE906306FF8E909000641208BE80B222AD82AE83AFF0900001E0F5F0A3E04558
:20022500F070F49000017401F0E4A3F0C005C006C00774D8C0E07470C0E07480C0E0126729
:20024500C5E58124FAF581900001E4F0A3F0126698AE82900001E0F5F0A3E045F070F490A0
:1B02650000017401F0E4A3F07F008E828F83126687900001E4F0A3F080D42293
:20707A005461736B2031005461736B2032000A0D004C6967687435322070726F6A656374A0
:20709A00202D2D204E6F7620203220323031382031373A31383A31370A0A0D00467265653C
:2070BA0052544F5320746573742E0A0D00426C696E6B5461736B0052585461736B004861E0
:1170DA006C6C6F20766F6E202573210A0D0025630073
:20007500900009E4F0A3F0A3F0900066F0900067F0A3F0900069F090006AF090006BF0902A
:1D009500006CF090006DF090006EF090006FF0A3F0900071F0A3F0A3F0900074F08A
:20028000C00C85810C058105810581AE82AF83900033C007C006126184AB82AC83ADF0D07C
:2002A00006D007A80C08A60308A60408A605A80C08E608466077C006C007A80C08742026CD
:2002C000FAE40836FE088607E50C24F9F886040886058C828D83C007C006C002126184AB3D
:2002E00082AC83ADF0D002D006D0078A828E838FF0EB1266A0A3EC1266A0A3ED1266A0D073
:2003000007D006EB4C7026A80C0886030886040886058B828C838DF0C007C00612622DD032
:2003200006D007A80C08E4F608F6087600A80C08E6084670030203B9E50C24F9F886020817
:200340008603E4FCFDC0E0C0E0C0E0A80C08E6C0E008E6C0E008E6C0E0E50C24F2F8E6C054
:20036000E008E6C0E008E6C0E0E50C24F5F8E6C0E0E50C24F6F8E6C0E008E6C0E008E6C034
:20038000E0C002C003C004C005E50C24FBF8E6C0E008E6C0E008E6C0E08E828F831203C2CC
:2003A000E58124ECF581A80C0886820886830886F01206BB75820180037582FF850C81D0D8
:2003C0000C22C00C85810CC082C083E581240CF581E50C24EDF8E50C2409F9E6F70809E69B
:2003E000F70809E6F7E50C2409F8742026FAE40836FE0886078A828E838FF0E50C240CF8E4
:2004000012705AF6A312705A08F6A312705A08F6E50C240CF8E50C2403F9E6F70809E6F71B
:200420000809E6F7E50C2409F8E50C2406F9742B26F7E4083609F70809E6F7E50C24F7F8D4
:20044000E624FFFA08E634FFFE08E634FF08E634FFE50C240CF8EA26FAEE0836FE08860558
:20046000E50C2406F886820886830886F0EA1266A0A3EE1266A0A3ED1266A0E50C2409F869
:20048000742326FDE40836FE0886077B00E50C2406F8EB2DF6E43E08F608A607C005C006F1
:2004A000C007E50C24FBF8EB26FDE40836FE0886078D828E838FF012705AFCE50C2406F820
:2004C00086820886830886F0EC1266A08D828E838FF012705AD007D006D00560060BBB0850
:2004E0000040AAE50C2409F8742A26FDE40836FE0886078D828E838FF0E41266A0E50C24D6
:20050000F3F8B604004007E50C24F3F87603E50C2409F8741F26FDE40836FE0886078D82E6
:200520008E838FF0E50C24F3F8E61266A0E50C2409F8740326FDE40836FE0886078D828E2B
:20054000838FF0122CBFE50C2409F8741126FDE40836FE0886078D828E838FF0122CBFE5A8
:200560000C2409F8740B26FDE40836FE088607E50C24EDF886020886030886048D828E832E
:200580008FF0EA1266A0A3EB1266A0A3EC1266A0E50C2409F8E50C2406F9741126F7E408D5
:2005A0003609F70809E6F7E50C24F3F886077E007404C39FFFE49EFEE50C2406F886820890
:2005C00086830886F0EF1266A0A3EE1266A0E50C2409F8741926FDE40836FE0886078D825A
:2005E0008E838FF0EA1266A0A3EB1266A0A3EC1266A0E50C2409F8742E26FDE40836FE0819
:2006000086078D828E838FF0E41266A0A31266A0A31266A0A31266A0E50C2409F87432269F
:20062000FDE40836FE0886078D828E838FF0E41266A0E50C24F4F8E6C0E008E6C0E008E66A
:20064000C0E0A80C08E6C0E008E6C0E0E50C2403F886820886830886F012624BAF82AE8362
:20066000ADF0E58124FBF581E50C2409F886820886830886F0EF1266A0A3EE1266A0A3EDF5
:200680001266A0E50C24F0F8E608466028E50C24F0F886050886060886078D828E838FF039
:2006A000E50C2409F8E61266A0A308E61266A0A308E61266A0850C81D00C22AD82AE83AFB5
:2006C000F0C0E0C0A8C2AF900066E02401F0900009E0FAA3E0FBA3E0FCEA4B7024900009F4
:2006E000EDF0EEA3F0EFA3F0900066E0FCBC0155C007C006C005121465D005D006D0078057
:200700004490006AE0703E900009E0FAA3E0FBA3E0FC741F2AFAE43BFB8A828B838CF01224
:20072000705AFA741F2DF9E43EFB8F0489828B838CF012705AF9C39A400B900009EDF0EE16
:20074000A3F0EFA3F090006EE02401F0741F2DFAE43EFB8F048A828B838CF012705AF9902C
:200760000069E0C3995005900069E9F074032DFDE43EFE8A828B838CF012705A75F00CA465
:20078000240CF8740035F0F9C002C003C0047C00C004C003C002C005C006C0078882898329
:2007A0008CF0122CDF158115811581D002D003D004D0E053E080E5E042A8D0E090006AE0C9
:2007C000D004D003D002602E900009E0FDA3E0FEA3E0FF741F2DFDE43EFE8D828E838FF01D
:2007E00012705AFD8A828B838CF012705AFAC3ED9A50031264B522C00C85810CC082C08367
:20080000C0F0058105817E00C00612094AD006900067E0FAA3E0FBE50C2404F8A60208A6E7
:2008200003A80C0886820886830886F012705AFBA312705AFCE50C24FCF8E62BFD08E63CCF
:20084000FF8D02E50C2404F8C3E69B08E69C5018C3EA9BEF9C5027E50C2404F8C3E69A081D
:20086000E69F501A7E018016C3EA9BEF9C400DE50C2404F8C3E69A08E69F50027E01A80CEE
:200880000886820886830886F0EA1266A0A3EF1266A0EE6019E50C2404F8EAC396FAEF0861
:2008A00096FFE4C0E08A828F831222381581120952E58270031264B5850C81D00C22AE824D
:2008C000AF837D00EE4F601EC007C00612094AD006D007E4C0E08E828F8312223815811255
:2008E0000952AF828F05ED70031264B5227471C0E07400C0E0E4C0E0C0E0C0E0C0E0C0E08E
:2009000074BAC0E0E4C0E074EBC0E07470C0E07480C0E0901454120280AF82E58124F4F53E
:2009200081BF011AC2AF90006F74FFF0A3F090006A7401F0900067E4F0A3F012644122C29E
:20094000AF90006AE4F01264B422900074E02401F022C00CE581F50C2406F581E50C2404C7
:20096000F8E4F608F60876007C00C0E0C0A8C2AF900074E014F0E06003020AF7900066E030
:200980007003020AF790005AE07003020AB5C004900060E0FAA3E0FBA3E0FC74082AFAE4D4
:2009A0003BFB8A828B838CF012705AFAA312705AFBA312705AFCE50C2404F8A60208A60336
:2009C00008A604E50C2404F8741126FAE40836FB0886048A828B838CF0C00412303BD00455
:2009E000E50C2404F8740326FAE40836FB0886048A828B838CF0C00412303BD004E50C24E0
:200A000004F8A90C09741F26F7E4083609F70809E6F7A80C0886820886830886F012705A2D
:200A2000FF900069E0C39FD0045005900069EFF0C004E50C2404F8740326FAE40836FB08EA
:200A40008604A80C0886820886830886F012705A75F00CA4240CFE740035F0FF7D00C004C1
:200A6000C002C003C0048E828F838DF0122CDF158115811581D004A80C08868208868308FE
:200A800086F012705AFF900009E0FCA3E0FDA3E0FE741F2CFCE43DFD8C828D838EF0127098
:200AA0005AFCC3EF9CD004500302098590006C7401F0020985E50C2404F8E608466007C07E
:200AC000041214C0D00490006BE0FFFE601E8E07C007C004120B66E582D004D00760069057
:200AE000006C7401F0DFE990006BE4F090006CE060057C011264B5D0E053E080E5E042A893
:200B0000D0E08C82850C81D00C22C0E0C0A8C2AF900067E0FEA3E0FFD0E053E080E5E042CD
:200B2000A8D0E08E828F8322900067E0FEA3E08E82F58322900066E0F58222AD82AE83AF99
:200B4000F0ED4E700D900009E0FAA3E0FBA3E0FC80068D028E038F0474232AFAE43BFB8AE5
:200B6000828B838CF022C00CE581F50C2406F581E50C2404F87600900074E06003020DF2A5
:200B8000900067E0FDA3E0FEE50C2405F874012DF6E43E08F6E50C2405F8900067E6F0084F
:200BA000E6A3F0E50C2405F8E60846703A900054E0FAA3E0FBA3E0FC8B058C06900057E028
:200BC000FBA3E0FCA3E0FF900054EBF0ECA3F0EFA3F0900057EAF0EDA3F0EEA3F090006D9A
:200BE000E02401F01214C090006FE0FBA3E0FCE50C2405F8C3E69B08E69C5003020DBB9034
:200C00000054E0FAA3E0FBA3E0FC8A828B838CF012705A700B90006F74FFF0A3F0020DBBFD
:200C2000900054E0FAA3E0FBA3E0FC74042AFAE43BFB74022AFAE43BFB8A828B838CF012E7
:200C4000705AFAA312705AFBA312705AFC74082AFAE43BFB8A828B838CF012705AFAA31200
:200C6000705AFBA312705AFC74032AFDE43BFE8C078D828E838FF012705AFFA312705AFEEF
:200C8000E50C2405F8C3E69F08E69E500B90006FEFF0EEA3F0020DBB74032AFDE43BFE8CA3
:200CA000078D828E838FF0C004C003C00212303BD002D003D004A80C0874112AF6E43B08C7
:200CC000F608A604741C2AFDE43BFE8C078D828E838FF012705AFDA312705AFEA312705A91
:200CE000ED4E601AA80C0886820886830886F0C004C003C00212303BD002D003D004741F1A
:200D00002AFDE43BFE8C078D828E838FF0A80C0812705AF6C002C003C004900069E0FCA809
:200D20000C08C3EC96D004D003D0025008A80C08900069E6F0A80C0874032AF6E43B08F68E
:200D400008A6048D828E838FF012705A75F00CA4240CFB740035F0FC7A00C007C006C005C5
:200D6000A80C08E6C0E008E6C0E008E6C0E08B828C838AF0122CDF158115811581D005D0FB
:200D800006D0078D828E838FF012705AFD900009E0FCA3E0FEA3E0FF741F2CFCE43EFE8C1F
:200DA000828E838FF012705AFCC3ED9C5003020BFFE50C2404F87601020BFF900009E0FD94
:200DC000A3E0FEA3E0FF741F2DFDE43EFE8D828E838FF012705A75F00CA4240CF582740088
:200DE00035F0F583E024FE5010E50C2404F87601800790006BE02401F090006CE06007E5CD
:200E00000C2404F87601E50C2404F88682850C81D00C22C00CE581F50C240AF5819000742B
:200E2000E0600990006C7401F0020F8C90006CE4F0900069E0FFEF75F00CA4FDAEF0240CF4
:200E4000FBEE3400FC8B828C83E070031F80E7E50C2407F8A607ED240CFDEE3400FEE50C98
:200E60002408F8A60508A606087600E50C2408F8740126FAE40836FB0886078A828B838F6C
:200E8000F012705AFCA312705AFDA312705AFE74022CFCE43DFD8C828D838EF012705AFC61
:200EA000A312705AFDA312705AFE8A828B838FF0EC1266A0A3ED1266A0A3EE1266A08A823F
:200EC0008B838FF0A80C0812705AF6A312705A08F6A312705A08F6E50C2404F8A60408A694
:200EE0000508A606E50C2408F8740426FCE40836FD088606E50C2404F8C004C005C00686F1
:200F0000820886830886F01200111581158115817036A80C08740226FCE40836FD0886062E
:200F20008C828D838EF012705AFCA312705AFDA312705AFE8A828B838FF0EC1266A0A3ED17
:200F40001266A0A3EE1266A08A828B838FF012705AFAA312705AFBA312705AFF74082AFAC9
:200F6000E43BFB8A828B838FF012705AFAA312705AFBA312705AFF900009EAF0EBA3F0EF10
:200F8000A3F0E50C2407F8900069E6F0850C81D00C22C00C85810CAD82AE83AFF090000955
:200FA000E0FAA3E0FBA3E0FC74112AFAE43BFBC002C003C0048D828E838FF0122E3D15819C
:200FC000158115817401C0E0E50C24FCF886820886831222381581D00C22C00C85810CC010
:200FE00082C083C0F0900009E0FAA3E0FBA3E0FC74112AFAE43BFBE50C24FCF886067480C0
:201000000846FF8A828B838CF0EE1266A0A3EF1266A0900009E0FDA3E0FEA3E0FF74112D12
:20102000FDE43EFEC005C006C007A80C0886820886830886F0122CDF15811581158174019A
:20104000C0E0E50C24FAF886820886831222381581850C81D00C22C00C85810C05810581D4
:201060000581AD82AE83AFF074042DFDE43EFE74022DFDE43EFE8D828E838FF012705AFDF1
:20108000A312705AFEA312705AFF74082DFDE43EFE8D828E838FF012705AFDA312705AFE9A
:2010A000A312705AFFA80C08A60508A60608A607A80C08741126FAE40836FB0886048A82C6
:2010C0008B838CF012303B900074E06003021148A80C08740326FAE40836FB0886048A8259
:2010E0008B838CF012303BA80C08741F26FAE40836FB0886048A828B838CF012705AFE90CB
:201100000069E0C39E5005900069EEF0A80C08740326FDE40836FE0886078A828B838CF058
:2011200012705A75F00CA4240CFB740035F0FC7A00C005C006C0078B828C838AF0122CDF7F
:201140001581158115818023A80C08741126FDE40836FE088607C005C006C00790005A7560
:20116000F000122CDF158115811581A80C08741F26FDE40836FE0886078D828E838FF012C8
:20118000705AFD900009E0FCA3E0FEA3E0FF741F2CFCE43EFE8C828E838FF012705AC39D5B
:2011A00050097F0190006CEFF080027F008F82850C81D00C22C00CE581F50C2406F581ADD9
:2011C00082AE83AFF0E50C24FCF8860374800846FC8D828E838FF0EB1266A0A3EC1266A0A4
:2011E00074082DFAE43EFB8F048A828B838CF012705AFAA312705AFBA312705AFCE50C2426
:2012000004F8A60208A60308A6048D828E838FF012303BE50C2404F8740326FDE40836FEE0
:201220000886078D828E838FF012303BE50C2404F8741F26FDE40836FE0886078D828E8361
:201240008FF012705AFB900069E0C39B5005900069EBF0E50C2404F8A90C09740326F7E491
:20126000083609F70809E6F78D828E838FF012705A75F00CA4240CFB740035F0FC7A00C0B8
:2012800007C006C005A80C08E6C0E008E6C0E008E6C0E08B828C838AF0122CDF158115817F
:2012A0001581D005D006D0078D828E838FF012705AFD900009E0FCA3E0FEA3E0FF741F2C67
:2012C000FCE43EFE8C828E838FF012705AC39D500690006C7401F0850C81D00C22AD82AE74
:2012E00083AFF0C0E0C0A8C2AF90006DE08D828E838FF01266A00DBD00010E900067E0FB14
:20130000A3E0FC8D828E838FF0EB1266A0A3EC1266A0D0E053E080E5E042A8D0E022AD82F2
:20132000AE83AFF090006DE08D828E838FF01266A00DBD00010E900067E0FBA3E0FC8D8210
:201340008E838FF0EB1266A0A3EC1266A022C00C85810CC082C083C0F0E5812404F581C05A
:20136000E0C0A8C2AF900067E0FBA3E0FCE50C2406F8A60308A604A80C08740126FBE408B7
:2013800036FA0886048B828A838CF012705AFBA312705AFCE50C2406F8E6C39BFE08E69CC4
:2013A000FF8E02A80C0886820886830886F012705AFE90006DE0FDB506028011E50C24062E
:2013C000F8C3E69B08E69C40047E01806DE50C24FBF886030886040886058B828C838DF048
:2013E000E50C2404F812705AF6A312705A08F6E50C2404F8C3EA96EF0896502EE50C240415
:20140000F8E6C39AFA08E69FFF8B828C838DF0EA1266A0A3EF1266A0A80C088682088683F1
:201420000886F012131E7E0080108B828C838DF0E41266A0A31266A07E01D0E053E080E5C6
:20144000E042A8D0E08E82850C81D00C2290006C7401F0221214BF90000CE024FE50F51295
:2014600064B580F0227F00EF75F00CA4240CFD740035F0FE7C008D828E838CF0C007122B5E
:20148000DDD0070FBF040040DE90003C75F000122BDD90004875F000122BDD90005A75F0B7
:2014A00000122BDD900054743CF07400A3F0E4A3F09000577448F07400A3F0E4A3F02222BB
:2014C000900054E0FDA3E0FEA3E0FF8D828E838FF012705A700A90006F74FFF0A3F0806678
:2014E000900054E0FDA3E0FEA3E0FF74042DFDE43EFE74022DFDE43EFE8D828E838FF012F5
:20150000705AFDA312705AFEA312705AFF74082DFDE43EFE8D828E838FF012705AFDA31216
:20152000705AFEA312705AFF74032DFDE43EFE8D828E838FF012705AFDA312705AFE90001F
:201540006FEDF0EEA3F022900009E0FDA3E0FEA3E0FF8D828E838FF022C00C85810C0581FE
:201560000581900009E0FDA3E0FEA3E0FF74112DFDE43EFE8D828E838FF0A80C0812705A66
:20158000F6A312705A08F6900009E0FBA3E0FCA3E0FF74112BFBE43CFC900009E0FAA3E0A6
:2015A000FDA3E0FE741F2AFAE43DFD8A828D838EF012705AFA7E007404C39AFAE49EFE8B10
:2015C000828C838FF0EA1266A0A3EE1266A0A80C088682088683850C81D00C22C00CE58139
:2015E000F50C2407F581AF82C0E0C0A8C2AF900009E0FCA3E0FDA3E0FE742E2CFCE43DFD41
:201600008C828D838EF012705AFCA312705AFDA312705AFEA312705AFBEC4D4E4B704190D0
:201620000009E0FCA3E0FDA3E0FE74322CFCE43DFD8C828D838EF074011266A0E50C24FC9E
:20164000F8E60846601AC0077401C0E0E50C24FCF886820886831222381581D0071264B5E2
:20166000D0E053E080E5E042A8D0E0C0E0C0A8C2AF900009E0FEA3E0FCA3E0FD742E2EFEEB
:20168000E43CFC8E828C838DF0E50C2404F812705AF6A312705A08F6A312705A08F6A31200
:2016A000705A08F6E50C2404F8E60846084608467003021731EF602A900009E0FAA3E0FE57
:2016C000A3E0FF742E2AFAE43EFE8A828E838FF0E41266A0A31266A0A31266A0A31266A0D9
:2016E000804F900009E0FAA3E0FEA3E0FFA80C08742E2AF6E43E08F608A607E50C2404F841
:20170000E624FFFB08E634FFFC08E634FFFD08E634FFFFA80C0886820886830886F0EB121A
:2017200066A0A3EC1266A0A3ED1266A0A3EF1266A0900009E0FDA3E0FEA3E0FF74322DFD61
:20174000E43EFE8D828E838FF0E41266A0D0E053E080E5E042A8D0E0E50C2404F8868208EB
:2017600086830886F008E6850C81D00C22C00C85810CC082C083C0F0C0E0E581240BF58126
:20178000C0E0C0A8C2AF900009E0FAA3E0FBA3E0FF74322AFAE43BFB8A828B838FF012705E
:2017A0005AFABA0203021879900009E0FDA3E0FEA3E0FFE50C2405F8742E2DF6E43E08F613
:2017C00008A607900009E0FAA3E0FBA3E0FC742E2AFAE43BFB8A828B838CF0E50C2408F859
:2017E00012705AF6A312705A08F6A312705A08F6A312705A08F6A80C08E6F4FD08E6F4FE2D
:2018000008E6F4FC08E6F4FFE50C2408F8E6520508E6520608E6520408E65207E50C2405CC
:20182000F886820886830886F0ED1266A0A3EE1266A0A3EC1266A0A3EF1266A0900009E0A1
:20184000FDA3E0FEA3E0FF74322DFDE43EFE8D828E838FF074011266A0E50C24F5F8E6087C
:201860004660167401C0E0E50C24F5F8868208868312223815811264B5D0E053E080E5E027
:2018800042A8D0E0C0E0C0A8C2AFE50C24F7F8E60846605FE50C24F7F8E50C2408F9E6F747
:2018A0000809E6F70809E6F7900009E0FAA3E0FBA3E0FC742E2AFAE43BFB8A828B838CF066
:2018C00012705AFAA312705AFBA312705AFCA312705AFFE50C2408F886820886830886F013
:2018E000EA1266A0A3EB1266A0A3EC1266A0A3EF1266A0900009E0FDA3E0FEA3E0FF7432D0
:201900002DFDE43EFE8D828E838FF012705AFDBD020280057F000219B1900009E0FCA3E07C
:20192000FDA3E0FEE50C2408F8742E2CF6E43D08F608A606900009E0FAA3E0FBA3E0FE7497
:201940002E2AFAE43BFB8A828B838EF0E50C240CF812705AF6A312705A08F6A312705A0894
:20196000F6A312705A08F6E50C24FAF8E6F4FC08E6F4FD08E6F4FB08E6F4FEE50C240CF862
:20198000E6520408E6520508E6520308E65206E50C2408F886820886830886F0EC1266A08D
:2019A000A3ED1266A0A3EB1266A0A3EE1266A07F01900009E0FCA3E0FDA3E0FE74322CFC6C
:2019C000E43DFD8C828D838EF0E41266A0D0E053E080E5E042A8D0E08F82850C81D00C226E
:2019E000C00CE581F50C2407F581AF82AE83ADF0E50C2407F87601E50C2404F8A60708A61D
:201A00000608A605C0E0C0A8C2AFE50C24F6F8E608466052E50C24F6F8A90C09E6F70809FC
:201A2000E6F70809E6F7742E2FFAE43EFB8D048A828B838CF012705AFAA312705AFBA312C7
:201A4000705AFCA312705AFFA80C0886820886830886F0EA1266A0A3EB1266A0A3EC126640
:201A6000A0A3EF1266A0E50C2404F8743226FDE40836FE0886078D828E838FF012705AFC16
:201A80008D828E838FF074021266A0E50C24F9F8E624FB5003021BF5E50C24F9F8E6262671
:201AA000901AA473021BF5021AB3021B1F021B83021BB6C004E50C2404F8A90C09742E267A
:201AC000F7E4083609F70809E6F7A80C0886820886830886F012705AFAA312705AFBA312A7
:201AE000705AFCA312705AFFE50C24FAF8E6420208E6420308E6420408E64207A80C088691
:201B0000820886830886F0EA1266A0A3EB1266A0A3EC1266A0A3EF1266A0D004021BF5C015
:201B200004E50C2404F8A90C09742E26F7E4083609F70809E6F7A80C0886820886830886A0
:201B4000F012705AFAA312705AFBA312705AFCA312705AFF0ABA00090BBB00050CBC0001EB
:201B60000FA80C0886820886830886F0EA1266A0A3EB1266A0A3EC1266A0A3EF1266A0D03A
:201B8000048072E50C2404F8742E26FDE40836FE0886078D828E838FF0E50C24FAF8E61226
:201BA00066A0A308E61266A0A308E61266A0A308E61266A0803FBC02028033E50C2404F8E1
:201BC000742E26FDE40836FE0886078D828E838FF0E50C24FAF8E61266A0A308E61266A03E
:201BE000A308E61266A0A308E61266A08007E50C2407F87600BC01028003021CBFE50C244E
:201C000004F8740326FDE40836FE0886078D828E838FF012303BE50C2404F8741F26FDE4B2
:201C20000836FE0886078D828E838FF012705AFC900069E0C39C5005900069ECF0E50C24E5
:201C400004F8A90C09740326F7E4083609F70809E6F78D828E838FF012705A75F00CA42472
:201C60000CFB740035F0FC7A00C007C006C005A80C08E6C0E008E6C0E008E6C0E08B828C05
:201C8000838AF0122CDF158115811581D005D006D0078D828E838FF012705AFD900009E0F5
:201CA000FCA3E0FEA3E0FF741F2CFCE43EFE8C828E838FF012705AFCC39D50031264B5D026
:201CC000E053E080E5E042A8D0E0E50C2407F88682850C81D00C22C00CE581F50C2407F593
:201CE00081AF82AE83ADF0E50C2407F87601E50C2404F8A60708A60608A605E50C24F6F8B1
:201D0000E608466052E50C24F6F8A90C09E6F70809E6F70809E6F7742E2FFAE43EFB8D04EA
:201D20008A828B838CF012705AFAA312705AFBA312705AFCA312705AFFA80C088682088672
:201D4000830886F0EA1266A0A3EB1266A0A3EC1266A0A3EF1266A0E50C2404F8743226FDAF
:201D6000E40836FE0886078D828E838FF012705AFC8D828E838FF074021266A0E50C24F9FC
:201D8000F8E624FB5003021EE6E50C24F9F8E62626901D9573021EE6021DA4021E10021EE7
:201DA00074021EA7C004E50C2404F8A90C09742E26F7E4083609F70809E6F7A80C088682C2
:201DC0000886830886F012705AFAA312705AFBA312705AFCA312705AFFE50C24FAF8E642FC
:201DE0000208E6420308E6420408E64207A80C0886820886830886F0EA1266A0A3EB1266E8
:201E0000A0A3EC1266A0A3EF1266A0D004021EE6C004E50C2404F8A90C09742E26F7E408B9
:201E20003609F70809E6F7A80C0886820886830886F012705AFAA312705AFBA312705AFC60
:201E4000A312705AFF0ABA00090BBB00050CBC00010FA80C0886820886830886F0EA1266DF
:201E6000A0A3EB1266A0A3EC1266A0A3EF1266A0D0048072E50C2404F8742E26FDE408360D
:201E8000FE0886078D828E838FF0E50C24FAF8E61266A0A308E61266A0A308E61266A0A316
:201EA00008E61266A0803FBC02028033E50C2404F8742E26FDE40836FE0886078D828E833F
:201EC0008FF0E50C24FAF8E61266A0A308E61266A0A308E61266A0A308E61266A08007E517
:201EE0000C2407F87600BC01028003021FFC900074E06003021F75E50C2404F8740326FD56
:201F0000E40836FE0886078D828E838FF012303BE50C2404F8741F26FDE40836FE08860774
:201F20008D828E838FF012705AFC900069E0C39C5005900069ECF0E50C2404F8740326FA20
:201F4000E40836FB0886048D828E838FF012705A75F00CA4240CFE740035F0FF7D00C0023D
:201F6000C003C0048E828F838DF0122CDF1581158115818025E50C2404F8741126FDE40812
:201F800036FE088607C005C006C00790005A75F000122CDF158115811581E50C2404F87473
:201FA0001F26FDE40836FE0886078D828E838FF012705AFD900009E0FCA3E0FEA3E0FF74C6
:201FC0001F2CFCE43EFE8C828E838FF012705AFCC39D5028E50C24F3F8E608466018E50CAF
:201FE00024F3F886050886060886078D828E838FF074011266A090006C7401F0E50C240775
:20200000F88682850C81D00C22C00C85810CC082C083C0F0E5812407F581A80C08E50C24C5
:2020200007F9E6F70809E6F70809E6F7A80C08743226FAE40836FB0886048A828B838CF020
:20204000E50C240AF812705AF68A828B838CF074021266A0A80C08E50C2404F9742E26F7E6
:20206000E4083609F70809E6F7E50C2404F886820886830886F012705AFEA312705AFDA3AF
:2020800012705AFCA312705AFF0EBE00090DBD00050CBC00010FE50C2404F8868208868344
:2020A0000886F0EE1266A0A3ED1266A0A3EC1266A0A3EF1266A0E50C240AF8B60102800350
:2020C0000221DB900074E06003022156A80C08740326FDE40836FE0886078D828E838FF098
:2020E00012303BA80C08741F26FDE40836FE0886078D828E838FF012705AFF900069E0C326
:202100009F5005900069EFF0E50C2407F8740326FDE40836FE088607E50C2407F8741F26C3
:20212000FAE40836FB0886048A828B838CF012705A75F00CA4240CFB740035F0FC7A00C075
:2021400005C006C0078B828C838AF0122CDF1581158115818023A80C08741126FDE408364F
:20216000FE088607C005C006C00790005A75F000122CDF158115811581E50C2407F8741FA5
:2021800026FDE40836FE0886078D828E838FF012705AFD900009E0FCA3E0FEA3E0FF741FE4
:2021A0002CFCE43EFE8C828E838FF012705AFCC39D5028E50C24FBF8E608466018E50C24C0
:2021C000FBF886050886060886078D828E838FF074011266A090006C7401F0850C81D00CDD
:2021E00022AD82AE83AFF0ED4E700D900009E0FAA3E0FBA3E0FC80068D028E038F04C0E0BD
:20220000C0A8C2AF74322AFDE43BFE8C078D828E838FF012705AFCBC020E8D828E838FF086
:20222000E41266A07F0180027F00D0E053E080E5E042A8D0E08F8222C00C85810CC082C04C
:2022400083E5812404F581900067E0FCA3E0FDE50C2405F8A60408A605900009E0FAA3E03F
:20226000FBA3E0FF74032AFAE43BFB8A828B838FF012303BE50C2405F8A90C09E726FE0932
:20228000E70836FFE50C2403F8A60608A607900009E0FAA3E0FBA3E0FD74032AFAE43BFB83
:2022A0008A828B838DF0E50C2403F8E61266A0A308E61266A0E50C2403F8E50C2405F9C3EA
:2022C000E69708E609975036900009E0FBA3E0FCA3E0FD74032BFBE43CFE8D07900057E0E4
:2022E000FAA3E0FCA3E0FDC003C006C0078A828C838DF0122E3D1581158115818055900059
:2023000009E0FBA3E0FCA3E0FD74032BFBE43CFC900054E0FAA3E0FEA3E0FFC003C004C019
:20232000058A828E838FF0122E3D15811581158190006FE0FEA3E0FFE50C2403F8C3E69E07
:1923400008E69F500EE50C2403F890006FE6F008E6A3F0850C81D00C2223
:0570EB0049444C450082
:2023590090000E126184AD82AE83AFF0ED4E602C8D828E838FF0E41266A0A31266A074023D
:202379002DFAE43EFB8F048A828B838CF0C007C006C005122BDDD005D006D0078D828E83C9
:202399008FF022C00C85810CC082C083C0F0E5812405F581A80C08E50C2404F9E6F70809AF
:2023B900E6F70809E6F712094AA80C0886820886830886F012705AFFA312705AFEC007C0A2
:2023D90006E50C24FCF8E6C0E008E6C0E0A80C0886820886830886F012282815811581D010
:2023F90006D007E50C24FCF8E64FFA08E64EFCE50C24FAF8E6520208E65204E50C24FAF8EB
:20241900E6B5020708E6B5040280028051E50C24FCF8E64FFB08E64EFCA80C088682088640
:20243900830886F012705AFAA312705AFFE50C24FAF8E6F4FD08E6F4FEED5202EE5207A840
:202459000C0886820886830886F0EA1266A0A3EF1266A0E50C24F8F8E4F608F6805DE50C61
:2024790024F8F8E60846603FE50C24FAF8860674050846FCA80C08740226FAE40836FD088D
:202499008607E50C24F8F8E6C0E008E6C0E0C006C0048A828D838FF0120FDAE58124FCF5E2
:2024B900817B007C008014A80C0886820886830886F012705AFBA312705AFCC004C00312B9
:2024D9000952AF82D003D004E50C24F8F8E608467003022598EF70031264B5121559AE8208
:2024F900AF83E50C2407F8A60608A607E50C2407F808E630E10302258FC0E0C0A8C2AFE5F2
:202519000C2404F886820886830886F012705AFAA312705AFDE50C2407F8A60208A605E539
:202539000C2407F8E50C24FAF9E756FE09E70856FFE50C24FAF8E6B5060708E6B5070280E8
:20255900028028E50C24FAF8E6F4FE08E6F4FFEE5202EF5205E50C2404F88682088683083E
:2025790086F0EA1266A0A3ED1266A0D0E053E080E5E042A8D0E0E50C2407F886037C008BBC
:20259900828C83850C81D00C22C00C85810CC082C083C0F0058105810581A80C08E50C240B
:2025B90004F9E6F70809E6F70809E6F77F007E00C007C00612094AA80C0886820886830880
:2025D90086F012705AFDA312705AFAC005C002E50C24FAF8E6C0E0E50C24FCF8E6C0E0086F
:2025F900E6C0E08D828A83122B92AC82158115811581D002D005D006D007EC605C8D038A4B
:2026190004E50C24F8F8E4F608F6E50C24FBF8E670030226D8C003C004A80C088682088686
:20263900830886F012705AFAA312705AFCE50C24FCF8E6F4FB08E6F4FFEB5202EF5204A844
:202659000C0886820886830886F0EA1266A0A3EC1266A0D004D0038066E50C24F8F8E6088D
:202679004670068D038A048056E50C24FBF8E660047F007E01E50C24FAF8E66003430604A4
:20269900E50C24FCF8EF46FCEE0846FEE50C2404F8740226FAE40836FD088607E50C24F845
:2026B900F8E6C0E008E6C0E0C004C0068A828D838FF0120FDAE58124FCF5817B007C00C022
:2026D90004C003120952AF82D003D004E50C24F8F8E6084670030227ADEF70031264B512B4
:2026F9001559AE82E583FF30E1030227A9C0E0C0A8C2AFE50C2404F886820886830886F0B5
:2027190012705AFEA312705AFFC007C006E50C24FAF8E6C0E0E50C24FCF8E6C0E008E6C0F1
:20273900E08E828F83122B92AD82158115811581D006D007ED604EE50C24FBF8E66046C022
:2027590006C007E50C2404F886820886830886F012705AFAA312705AFDE50C24FCF8E6F4B6
:20277900FE08E6F4FFEE5202EF5205E50C2404F886820886830886F0EA1266A0A3ED126627
:20279900A0D007D006D0E053E080E5E042A8D0E08E037C008B828C83850C81D00C22C00C0C
:2027B90085810CC082C083C0F0C0E0C0A8C2AFA80C0886820886830886F012705AFEA3125E
:2027D900705AFD8E028D04E50C24FCF8E6F4FB08E6F4FFEE5203ED5207A80C08868208865E
:2027F900830886F0EB1266A0A3EF1266A0D0E053E080E5E042A8D0E08A828C83850C81D053
:202819000C2212705AFDA312705A8D82F58322C00CE581F50C2410F581AA82AB83ACF0E5B8
:202839000C240AF8E4F608F6E50C240EF8A60208A60308A604E50C2407F874022AF6E43B86
:2028590008F608A604E50C2407F8740426FDE40836FE088607E50C2404F8A60508A60608D3
:20287900A607C004C003C00212094AD002D003D004E50C2407F8740626FDE40836FE08860C
:20289900078D828E838FF0A80C0812705AF6A312705A08F6A312705A08F68A828B838CF05B
:2028B90012705AFEA312705AFFE50C24FCF8E6420608E642078A828B838CF0EE1266A0A3FA
:2028D900EF1266A0A80C08E50C2404F9E7C0E009E7C0E009E7C0E086820886830886F012BA
:2028F90000111581158115817003022A2EA80C08740226FDE40836FE0886078D828E838F66
:20291900F012705AFDA312705AFEA312705AFFA80C0886820886830886F012705AFBA312FB
:20293900705AFC7A00E50C240CF8760008A6047C00E50C240CF808E620E230C005C006C0FD
:2029590007E50C240EF886820886830886F012705AFEA312705AFFEB5206EC5207EE4FD0B8
:2029790007D006D00560407A01803CC005C006C007E50C240EF886820886830886F012702F
:202999005AFEA312705AFFEB5206EC5207EEB50306EFB504028008D007D006D0058008D008
:2029B90007D006D0057A01EA605DE50C240CF808E630E00CE50C240AF8EB46F6EC0846F699
:2029D900C005C006C007E50C240EF886820886830886F012705AFEA312705AFF430702C076
:2029F90007C006C005C006C007A80C0886820886830886F01211B515811581D005D006D0CD
:202A190007D007D006D005A80C08A60508A60608A6070228DDE50C240EF886820886830801
:202A390086F012705AFEA312705AFFE50C240AF8E6F4FC08E6F4FDEC5206ED5207E50C2444
:202A59000EF886820886830886F0EE1266A0A3EF1266A0120952E50C240EF886820886836F
:202A79000886F012705AFEA312705AFF8E828F83850C81D00C22C00C85810C058105810546
:202A990081AD82AE83AFF0A80C08A60508A60608A60774022DFDE43EFEC007C006C00512A9
:202AB900094AD005D006D00774062DFAE43EFB8F048D828E838FF012705A604EC005C00623
:202AD900C0078A828B838CF012705AFDA312705AFEA312705AFFC007C006C005C004C003D3
:202AF900C002E4C0E07402C0E08D828E838FF01211B515811581D002D003D004D005D0069A
:202B1900D007D007D006D00580A7A80C0886020886030886048A828B838CF012622D120963
:202B390052850C81D00C22C00C85810CAD82AE83AFF0E50C24FAF88603088604C003C00494
:202B59008D828E838FF012282815811581D00C22C00C85810CAD82AE83AFF0E50C24FAF84D
:202B79008603088604C003C0048D828E838FF01227B715811581D00C22C00C85810CAE82D3
:202B9900AF837D00E50C24FBF8E67013E50C24FCF8E65EFB08E65FFC4B60247D018020E599
:202BB9000C24FCF8E6520608E65207E50C24FCF8E6B5060708E6B50702800280027D018DE7
:042BD90082D00C2278
:202BDD00C00C85810CC082C083C0F0058105810581A80C08740126FFE40836FB088602A888
:202BFD000C08E50C2404F9740426F7E4083609F70809E6F7E50C2404F88604088605088631
:202C1D00068F828B838AF0EC1266A0A3ED1266A0A3EE1266A0E50C2404F886820886830871
:202C3D0086F074FF1266A0A31266A0E50C2404F8740226FFE40836FD088604E50C2404F84D
:202C5D0086020886030886068F828D838CF0EA1266A0A3EB1266A0A3EE1266A0E50C2404A3
:202C7D00F8740526FFE40836FD088604E50C2404F886020886030886068F828D838CF0EAAB
:202C9D001266A0A3EB1266A0A3EE1266A0A80C0886820886830886F0E41266A0850C81D07F
:202CBD000C22AD82AE83AFF0740B2DFDE43EFE8D828E838FF0E41266A0A31266A0A3126690
:202CDD00A022C00C85810CC082C083C0F0E5812409F581A80C08740126FAE40836FB0886FD
:202CFD00048A828B838CF0E50C240AF812705AF6A312705A08F6A312705A08F6E50C24FB2A
:202D1D00F8860208860308860474022AFDE43BFE8C078D828E838FF0E50C240AF8E6126692
:202D3D00A0A308E61266A0A308E61266A0E50C2404F874052AF6E43B08F608A604E50C24F6
:202D5D000AF8E50C2407F9740526F7E4083609F70809E6F7E50C2407F886820886830886DE
:202D7D00F012705AFDA312705AFEA312705AFFE50C2404F886820886830886F0ED1266A0C5
:202D9D00A3EE1266A0A3EF1266A0E50C2407F886820886830886F012705AFDA312705AFEC2
:202DBD00A312705AFF74022DFDE43EFE8D828E838FF0EA1266A0A3EB1266A0A3EC1266A0CA
:202DDD00E50C2407F886820886830886F0EA1266A0A3EB1266A0A3EC1266A0740B2AFAE455
:202DFD003BFB8A828B838CF0A80C08E61266A0A308E61266A0A308E61266A0A80C0886821A
:202E1D000886830886F012705AFF0FA80C0886820886830886F0EF1266A0850C81D00C22B2
:202E3D00C00C85810CC082C083C0F0E581240BF581E50C24FBF886020886030886048A8298
:202E5D008B838CF0E50C240DF812705AF6A312705A08F6E50C240DF8B6FF4308B6FF3FC094
:202E7D0002C003C004A80C08740426FAE40836FB08860474052AFAE43BFB8A828B838CF05C
:202E9D00E50C240AF812705AF6A312705A08F6A312705A08F6D004D003D002022F3FA80C95
:202EBD0008740426FDE40836FE088607E50C240AF8A60508A60608A607C002C003C004E544
:202EDD000C240AF8740226FDE40836FE0886078D828E838FF012705AFAA312705AFBA312B1
:202EFD00705AFC8A828B838CF012705AFAA312705AFBE50C240DF8C3E69A08E69BD004D07F
:202F1D0003D002401D8D828E838FF0E50C240AF812705AF6A312705A08F6A312705A08F6E0
:202F3D008097E50C2404F874022AF6E43B08F608A604E50C240AF8E50C2407F9740226F728
:202F5D00E4083609F70809E6F7E50C2407F886820886830886F012705AFDA312705AFEA3A0
:202F7D0012705AFFE50C2404F886820886830886F0ED1266A0A3EE1266A0A3EF1266A074E5
:202F9D00052DFDE43EFE8D828E838FF0EA1266A0A3EB1266A0A3EC1266A074052AFDE43B18
:202FBD00FE8C078D828E838FF0E50C240AF8E61266A0A308E61266A0A308E61266A0E50C6C
:202FDD002407F886820886830886F0EA1266A0A3EB1266A0A3EC1266A0740B2AFAE43BFB0E
:202FFD008A828B838CF0A80C08E61266A0A308E61266A0A308E61266A0A80C0886820886C0
:20301D00830886F012705AFF0FA80C0886820886830886F0EF1266A0850C81D00C22C00C72
:20303D0085810CC082C083C0F0E581240CF581A80C08740B26FAE40836FB0886048A828B7F
:20305D00838CF0E50C240DF812705AF6A312705A08F6A312705A08F6A80C08E50C2404F9A0
:20307D00740226F7E4083609F70809E6F7E50C2404F886820886830886F012705AFDA3125A
:20309D00705AFEA312705AFFE50C240AF874052DF6E43E08F608A607A80C08E50C2407F974
:2030BD00740526F7E4083609F70809E6F7E50C2407F886820886830886F012705AFDA31214
:2030DD00705AFEA312705AFFE50C240AF886820886830886F0ED1266A0A3EE1266A0A3EF9F
:2030FD001266A0E50C2407F886820886830886F012705AFDA312705AFEA312705AFFE50C2B
:20311D00240AF874022DF6E43E08F608A607E50C2404F886820886830886F012705AFDA3DA
:20313D0012705AFEA312705AFFE50C240AF886820886830886F0ED1266A0A3EE1266A0A31B
:20315D00EF1266A0E50C240DF8E50C240AF9740126F7E4083609F70809E6F7E50C240AF860
:20317D0086820886830886F012705AFDA312705AFEA312705AFFA80C08C005C006C0078633
:20319D00820886830886F012001115811581158160028036E50C2407F88682088683088649
:2031BD00F012705AFDA312705AFEA312705AFFE50C240AF886820886830886F0ED1266A07B
:2031DD00A3EE1266A0A3EF1266A08A828B838CF0E41266A0A31266A0A31266A0E50C240D55
:2031FD00F886820886830886F012705AFF1FE50C240DF886820886830886F0EF1266A0E58C
:17321D000C240DF886820886830886F012705AF582850C81D00C226B
:20323400C00C85810CC082C083C0F0E5812409F581C0E0C0A8C2AFA80C08740626FAE408A3
:2032540036FB088604A80C0886820886830886F0E50C2404F912705AF7A312705A09F7A33D
:2032740012705A09F7A80C08E50C2407F9742526F7E4083609F70809E6F7E50C2407F8862D
:20329400820886830886F012705AFEA80C08E50C240AF9742626F7E4083609F70809E6F794
:2032B400E50C240AF886820886830886F012705A8EF0A4C8E50C2404C826FD08E635F0FE71
:2032D4000886078A828B838CF0ED1266A0A3EE1266A0A3EF1266A0A80C08742426FDE408F4
:2032F40036FE0886078D828E838FF0E41266A0A80C08E50C2404F9740326F7E4083609F7D2
:203314000809E6F7A80C0886820886830886F012705AFDA312705AFEA312705AFFE50C246F
:2033340004F886820886830886F0ED1266A0A3EE1266A0A3EF1266A074032AFAE43BFBA831
:203354000C0886820886830886F0E50C2404F912705AF7A312705A09F7A312705A09F7E5E6
:203374000C2407F886820886830886F012705AFF7E00E50C2407F8EF24FFF6EE34FF08F6DF
:20339400E50C240AF886820886830886F012705AFD7F00C004C003C002C005C007E50C2429
:2033B40007F886820886831266BBAE82AF8315811581D002D003D004E50C2404F8EE26FE84
:2033D400EF0836FF0886058A828B838CF0EE1266A0A3EF1266A0A3ED1266A0A80C087427D5
:2033F40026FDE40836FE0886078D828E838FF074FF1266A0A80C08742826FDE40836FE0814
:2034140086078D828E838FF074FF1266A0E50C24FDF8E67039A80C08740C26FDE40836FEC9
:203434000886078D828E838FF012705A604EA80C08740C26FDE40836FE0886078D828E8386
:203454008FF0121057E58260331264B5802EA80C08740C26FDE40836FE0886078D828E8359
:203474008FF0122BDDA80C08741826FDE40836FE0886078D828E838FF0122BDDD0E053E0E3
:2034940080E5E042A8D0E0758201850C81D00C22C00C85810CC082E50C24FDF8E67004FDB0
:2034B400FE8013A80C08E50C24FDF986F0E7A4FBACF08B058C0674292DFDE43EFE8D828E62
:2034D40083126184AC82AD83AEF0EC4D60438C028D038E0774292AFAE43BFBC006C005C0AD
:2034F40004C004C005C006E50C24FCF8E6C0E0C002C003C007E50C24FDF8E6C0E0A80C083E
:203514008682123530E58124F8F581D004D005D0068C828D838EF01581D00C22C00C85819F
:203534000CC082E50C24FDF8E67030E50C24F6F88604088605088606E50C24F6F886020852
:2035540086030886078C828D838EF0EA1266A0A3EB1266A0A3EF1266A0802EE50C24F6F89A
:203574008604088605088606E50C24FAF886020886030886078C828D838EF0EA1266A0A390
:20359400EB1266A0A3EF1266A0E50C24F6F8860508860608860774252DFAE43EFB8F048AB9
:2035B400828B838CF0A80C08E61266A074262DFAE43EFB8F048A828B838CF0E50C24FDF820
:2035D400E61266A07401C0E08D828E838FF012323415811581D00C22C00CE581F50C24111B
:2035F400F581AD82AB83ACF0E50C240BF87600E50C240FF8A60508A60308A604E50C24F883
:20361400F8E4B6020104FFE50C240CFEE50C2407F8A606A80C0874242DF6E43B08F608A6DD
:2036340004E50C2404F874252DF6E43B08F608A604C0E0C0A8C2AFA80C0886820886830880
:2036540086F012705AFDE50C2404F886820886830886F012705AFCC3ED9C4006EF70030291
:2036740036FCE50C24F8F8E6C0E0E50C24FBF8E6C0E008E6C0E008E6C0E0E50C240FF8862D
:20369400820886830886F01244BDAC82E58124FCF5818C07E50C240FF8741826FAE408364B
:2036B400FB0886048A828B838CF012705A6022E50C240FF8741826FAE40836FB0886048A74
:2036D400828B838CF0121057E582600B1264B58006EF60031264B5D0E053E080E5E042A83F
:2036F400D0E075820102389EE50C24F9F8E608467011D0E053E080E5E042A8D0E0758200C2
:2037140002389EE50C240BF8E6701D8E02FB7C408A828B838CF0C007C00612131ED006D0DF
:2037340007E50C240BF87601D0E053E080E5E042A8D0E0C007C00612094AD006D007C0E0DE
:20375400C0A8C2AFE50C240FF8742726FAE40836FB0886048A828B838CF012705AFDBDFFCB
:203774000A8A828B838CF0E41266A0E50C240FF8742826FAE40836FB0886048A828B838C6C
:20379400F012705AFDBDFF0A8A828B838CF0E41266A0C007D0E053E080E5E042A8D0E0E586
:2037B4000C24F9FCE50C2408F8A604087600087640E50C2407F886047D007F40C006E50C44
:2037D4002408F8E6C0E008E6C0E008E6C0E08C828D838FF012134EAF82158115811581D03C
:2037F40006EFD0076003023888E50C240FF886820886830886F0C007C006124B1FE582D0D1
:2038140006D0076051E50C240FF8740C26FBE40836FC088605C007C006E50C24F9F8E6C05F
:20383400E008E6C0E08B828C838DF0120F9215811581E50C240FF886820886830886F012C9
:203854004952120952E582D006D00760030236451264B5023645E50C240FF886820886837B
:203874000886F0C007C006124952120952D006D007023645E50C240FF88682088683088622
:20389400F0124952120952758200850C81D00C22C00C85810C058105810581AA82AB83AC8D
:2038B400F0A80C08A60208A60308A60474242AFDE43BFE8C078D828E838FF012705AFD74E2
:2038D400252AFCE43BFE8C078C828E838FF012705AFCC3ED9C400DE50C24F7F8B60202808C
:2038F400030239B9A80C08742826FDE40836FE0886078D828E838FF012705AFFC007E50C5B
:2039140024F7F8E6C0E0E50C24FBF8E6C0E008E6C0E008E6C0E0A80C0886820886830886ED
:20393400F01244BDE58124FCF581D007BFFF58A80C08741826FCE40836FD0886068C828DCF
:20395400838EF012705A6058A80C08741826FCE40836FD0886068C828D838EF0121057E5A7
:2039740082603DE50C24F8F8E608466033E50C24F8F886040886050886068C828D838EF0F6
:2039940074011266A08019A80C08742826FCE40836FD0886060F8C828D838EF0EF1266A00E
:2039B4007582018003758200850C81D00C22C00C85810CC082C083C0F0E5812404F581A8B2
:2039D4000C08742426FAE40836FB0886048A828B838CF0E50C2407F812705AF6A80C0874AC
:2039F4002526FDE40836FE0886078D828E838FF012705AFDE50C2407F8C3E69D4003023A65
:203A1400BEA80C08E50C2404F9742826F7E4083609F70809E6F7E50C2404F8868208868313
:203A34000886F012705AFFE50C2407F8E604FE8A828B838CF01266A0BFFF58A80C08741811
:203A540026FCE40836FD0886068C828D838EF012705A6051A80C08741826FCE40836FD08C3
:203A740086068C828D838EF0121057E5826036E50C24FBF8E60846602CE50C24FBF886043A
:203A94000886050886068C828D838EF074011266A080120FE50C2404F88682088683088669
:203AB400F0EF1266A07582018003758200850C81D00C22C00CE581F50C240BF581AC82ADC6
:203AD40083AFF0E50C2405F87600E50C2409F8A60408A60508A607E50C2406FEE50C2404CE
:203AF400F8A606A80C0874242CF6E43D08F608A607C0E0C0A8C2AFA80C088682088683086E
:203B140086F012705AFCFD7003023BB2C005E50C24FBF8E6C0E008E6C0E008E6C0E0E50C84
:203B34002409F886820886830886F0124802158115811581D005E50C2409F8742426FBE40F
:203B54000836FC088607ED14FA8B828C838FF01266A0E50C2409F8740C26FBE40836FC08F7
:203B740086078B828C838FF012705A6020E50C2409F8740C26FBE40836FC0886078B828CAA
:203B9400838FF0121057E58260031264B5D0E053E080E5E042A8D0E0758201023D48E50C6F
:203BB40024F9F8E608467011D0E053E080E5E042A8D0E0758200023D48E50C2405F8E6707F
:203BD400198E03FC7F408B828C838FF0C00612131ED006E50C2405F87601D0E053E080E521
:203BF400E042A8D0E0C00612094AD006C0E0C0A8C2AFE50C2409F8742726FBE40836FC08C5
:203C140086078B828C838FF012705AFABAFF0A8B828C838FF0E41266A0E50C2409F8742886
:203C340026FBE40836FC0886078B828C838FF012705AFABAFF0A8B828C838FF0E41266A0D1
:203C5400C006D0E053E080E5E042A8D0E0E50C24F9FF7C007B40E50C2404F886027D007EF0
:203C740040C006C007C004C0038A828D838EF012134EAF82158115811581D006D006EF60E1
:203C940003023D17E50C2409F886820886830886F0C006124ACCE582D006604DE50C240914
:203CB400F8741826FCE40836FD088607C006E50C24F9F8E6C0E008E6C0E08C828D838FF019
:203CD400120F9215811581E50C2409F886820886830886F0124952120952E582D00660038A
:203CF400023B051264B5023B05E50C2409F886820886830886F0C006124952120952D0069E
:203D1400023B05E50C2409F886820886830886F0C006124952120952E50C2409F88682089A
:203D340086830886F0124ACCE582D0067003023B05758200850C81D00C22C00CE581F50C94
:203D5400240BF581AC82AD83AFF0E50C240BF87600E50C2408F8A60408A60508A607E50C07
:203D74002405FEE50C2404F8A606A80C0874242CF6E43D08F608A607C0E0C0A8C2AFA80CD4
:203D94000886820886830886F012705AFCFF605EEF14FCA80C0886820886830886F0EC128B
:203DB40066A0E50C2408F8740C26FBE40836FC0886078B828C838FF012705A6020E50C2474
:203DD40008F8740C26FBE40836FC0886078B828C838FF0121057E58260031264B5D0E0536F
:203DF400E080E5E042A8D0E0758201023F98E50C24FCF8E608467011D0E053E080E5E042F7
:203E1400A8D0E0758200023F98E50C240BF8E670198E03FC7F408B828C838FF0C00612130D
:203E34001ED006E50C240BF87601D0E053E080E5E042A8D0E0C00612094AD006C0E0C0A820
:203E5400C2AFE50C2408F8742726FBE40836FC0886078B828C838FF012705AFABAFF0A8B9A
:203E7400828C838FF0E41266A0E50C2408F8742826FBE40836FC0886078B828C838FF012F0
:203E9400705AFABAFF0A8B828C838FF0E41266A0C006D0E053E080E5E042A8D0E0E50C2453
:203EB400FCFF7C007B40E50C2404F886027D007E40C006C007C004C0038A828D838EF01228
:203ED400134EAF82158115811581D006D006EF6003023F67E50C2408F88682088683088618
:203EF400F0C006124ACCE582D006604DE50C2408F8741826FCE40836FD088607C006E50CB8
:203F140024FCF8E6C0E008E6C0E08C828D838FF0120F9215811581E50C2408F8868208863A
:203F3400830886F0124952120952E582D0066003023D8C1264B5023D8CE50C2408F88682D4
:203F54000886830886F0C006124952120952D006023D8CE50C2408F886820886830886F091
:203F7400C006124952120952E50C2408F886820886830886F0124ACCE582D0067003023D8A
:203F94008C758200850C81D00C22C00CE581F50C240DF581AD82AB83AFF07C00E50C240B08
:203FB400F8A60508A60308A607E50C2408FEE50C2404F8A606A80C0874242DF6E43B08F678
:203FD40008A607C0E0C0A8C2AFA80C0886820886830886F012705A70030240C4E50C240BD7
:203FF400F8740626FAE40836FB08860774032AFAE43BFB8A828B838FF012705AFEA312701C
:204014005AFDA312705AFCC006C005C004E50C24FBF8E6C0E008E6C0E008E6C0E0E50C24AC
:204034000BF886820886830886F0124802158115811581D004D005D006E50C240BF87406A3
:2040540026FAE40836FB08860774032AFAE43BFB8A828B838FF0EE1266A0A3ED1266A0A3DB
:20407400EC1266A0E50C240BF8741826FAE40836FB0886078A828B838FF012705A6020E5D8
:204094000C240BF8741826FAE40836FB0886078A828B838FF0121057E58260031264B5D0A4
:2040B400E053E080E5E042A8D0E075820102427BE50C24F9F8E608467011D0E053E080E540
:2040D400E042A8D0E075820002427BEC70148E02FB7F408A828B838FF0C00612131ED0066A
:2040F4007C01D0E053E080E5E042A8D0E0C006C00412094AD004D006C0E0C0A8C2AFE50C6A
:20411400240BF8742726FAE40836FB0886078A828B838FF012705AFDBDFF0A8A828B838F16
:20413400F0E41266A0E50C240BF8742826FAE40836FB0886078A828B838FF012705AFDBDCA
:20415400FF0A8A828B838FF0E41266A0C004D0E053E080E5E042A8D0E0E50C24F9FFE50C29
:204174002405F8A607087600087640E50C2404F886047D007F40C006C004E50C2405F8E6C8
:20419400C0E008E6C0E008E6C0E08C828D838FF012134EAF82158115811581D004D006D0D2
:2041B40004EF6003024246E50C240BF886820886830886F0C006C004124ACCE582D004D09F
:2041D400066051E50C240BF8741826FBE40836FD088607C006C004E50C24F9F8E6C0E0087D
:2041F400E6C0E08B828D838FF0120F9215811581E50C240BF886820886830886F01249524E
:20421400120952E582D004D0066003023FD71264B5023FD7E50C240BF8868208868308868F
:20423400F0C006C004124952120952D004D006023FD7E50C240BF886820886830886F0C0A5
:2042540006C004124952120952E50C240BF886820886830886F0124ACCE582D004D006700E
:2042740003023FD7758200850C81D00C22C00C85810CC082C083C0F0A80C08742426FAE49D
:204294000836FB0886048A828B838CF012705AFAFC7003024380A80C08742726FAE4083606
:2042B400FB0886078A828B838FF012705AFFC007C004E50C24FBF8E6C0E008E6C0E008E651
:2042D400C0E0A80C0886820886830886F0124802158115811581D004D007A80C0874242694
:2042F400FBE40836FD0886061C8B828D838EF0EC1266A0BFFF58A80C08740C26FCE40836AB
:20431400FD0886068C828D838EF012705A6058A80C08740C26FCE40836FD0886068C828D1C
:20433400838EF0121057E582603DE50C24F8F8E608466033E50C24F8F8860408860508866F
:20435400068C828D838EF074011266A08019A80C08742726FCE40836FD0886060F8C828DAB
:20437400838EF0EF1266A07582018003758200850C81D00C22C00C85810CAD82AE83AFF0C2
:2043940074242DFAE43EFB8F048A828B838CF012705A700302442C74062DFAE43EFB8F04F2
:2043B40074032AFAE43BFB8A828B838CF012705AFAA312705AFBA312705AFCC007C006C086
:2043D40005C004C003C002E50C24FBF8E6C0E008E6C0E008E6C0E08D828E838FF0124802D6
:2043F400158115811581D002D003D004D005D006D00774062DFDE43EFE74032DFDE43EFE67
:204414008D828E838FF0EA1266A0A3EB1266A0A3EC1266A07F0180027F008F82D00C22AD5D
:2044340082AE83AFF0C0E0C0A8C2AF74242DFDE43EFE8D828E838FF012705AFDD0E053E060
:2044540080E5E042A8D0E08D8222AD82AE83AFF0C0E0C0A8C2AF74252DFAE43EFB8F048AC6
:20447400828B838CF012705AFA74242DFDE43EFE8D828E838FF012705AFDEAC39DFAD0E0F8
:2044940053E080E5E042A8D0E08A8222AD82AE83AFF074242DFDE43EFE8D828E838FF01236
:2044B400705AF5822212622D22C00C85810CC082C083C0F0E581240AF581A80C087424262B
:2044D400FAE40836FB0886048A828B838CF0E50C240DF812705AF6A80C08E50C2404F9745B
:2044F4002626F7E4083609F70809E6F7E50C2404F886820886830886F012705AFE7003025E
:2045140047E9E50C24FAF8E66003024673C002C003C0048E047D00A80C08E50C2407F974AF
:204534000326F7E4083609F70809E6F7E50C2407F886820886830886F012705AFAA3127091
:204554005AFBA312705AFFC004C003C002C004C005E50C24FBF8E6C0E008E6C0E008E6C0D8
:20457400E08A828B838FF0126703E58124FBF581D002D003D004E50C2407F8868208868391
:204594000886F012705AFCA312705AFDA312705AFFE50C2404F886820886830886F012708D
:2045B4005AFBE50C240AF8EB2CF6E43D08F608A607E50C2407F886820886830886F0E50CFE
:2045D400240AF9E71266A0A309E71266A0A309E71266A0A80C08740626FAE40836FB08864A
:2045F400078A828B838FF012705AFAA312705AFBA312705AFFE50C240AF8C002C003C007D6
:2046140086820886830886F0120011158115811581D004D003D00250030247E9C002C00387
:20463400C004A80C0886820886830886F012705AFCA312705AFDA312705AFFE50C2407F869
:2046540086820886830886F0EC1266A0A3ED1266A0A3EF1266A0D004D003D0020247E9C0EE
:2046740002C003C0047F00A80C08E50C240AF9740626F7E4083609F70809E6F7E50C240A84
:20469400F8E50C2407F9740326F7E4083609F70809E6F7E50C2407F886820886830886F0AA
:2046B40012705AFBA312705AFCA312705AFDC004C003C002C006C007E50C24FBF8E6C0E0B4
:2046D40008E6C0E008E6C0E08B828C838DF0126703E58124FBF581D002D003D004E50C240C
:2046F40007F886820886830886F012705AFDA312705AFEA312705AFFE50C2404F88682081B
:2047140086830886F012705AFC7B00EDC39CFDEE9BFEE50C2407F886820886830886F0ED43
:204734001266A0A3EE1266A0A3EF1266A0A80C0886820886830886F012705AFAA312705A52
:20475400FBA312705AFCC002C003C0048D828E838FF0120011158115811581D004D003D08B
:2047740002505CC002C003C004E50C240AF886820886830886F012705AFDA312705AFEA387
:2047940012705AFFE50C2404F886820886830886F012705AFC7B00EDC39CFDEE9BFEE50C6E
:2047B4002407F886820886830886F0ED1266A0A3EE1266A0A3EF1266A0D004D003D002E575
:2047D4000C24FAF8B6020EE50C240DF8E66006E50C240DF816E50C240DF8E6048A828B8329
:2047F4008CF01266A0758200850C81D00C22C00C85810CC082C083C0F0E5812404F581A84B
:204814000C08742626FAE40836FB0886048A828B838CF0E50C2404F812705AF6E50C240475
:20483400F8E6700302494CC002C003C004A80C08740626FAE40836FB088604E50C2405F81C
:2048540074032AF6E43B08F608A604E50C2405F886820886830886F012705AFDA312705ADD
:20487400FEA312705AFFE50C2404F8E62DFDE43EFEE50C2405F886820886830886F0ED12BF
:2048940066A0A3EE1266A0A3EF1266A08A828B838CF012705AFAA312705AFBA312705AFC4A
:2048B400C002C003C0048D828E838FF0120011158115811581D004D003D0024034A80C086E
:2048D40086820886830886F012705AFDA312705AFEA312705AFFE50C2405F886820886832E
:2048F4000886F0ED1266A0A3EE1266A0A3EF1266A08A828B838CF012705AFA7F00E50C24CE
:2049140005F886820886830886F012705AFCA312705AFDA312705AFEC002C007C004C0050C
:20493400C006E50C24FBF886820886830886F0126703E58124FBF581850C81D00C22C00CAB
:2049540085810CC082C083C0F0E5812404F581C0E0C0A8C2AFA80C08742826FAE40836FBEA
:204974000886048A828B838CF0E50C2407F812705AF6A80C08E50C2404F9741826F7E408B2
:204994003609F70809E6F7E50C2407F8C3748086F063F08095F05050E50C2404F886820885
:2049B40086830886F012705A603EA80C08741826FDE40836FE0886078D828E838FF0C0045F
:2049D400C003C002121057E582D002D003D004600FC004C003C00212144DD002D003D00441
:2049F400E50C2407F816809F8A828B838CF074FF1266A0D0E053E080E5E042A8D0E0C0E0D7
:204A1400C0A8C2AFA80C08742726FDE40836FE0886078D828E838FF012705AFCA80C08E562
:204A34000C2404F9740C26F7E4083609F70809E6F7C374808CF063F08095F0505FE50C2439
:204A540004F886820886830886F012705A604DC005C006C007A80C08740C26FAE40836FB5B
:204A74000886078A828B838FF0C007C006C005C004121057E582D004D005D006D007D007D1
:204A9400D006D0056013C007C006C005C00412144DD004D005D006D0071C80958D828E83B4
:204AB4008FF074FF1266A0D0E053E080E5E042A8D0E0850C81D00C22AD82AE83AFF0C0E067
:204AD400C0A8C2AF74242DFDE43EFE8D828E838FF012705A70047F0180027F00D0E053E0B4
:204AF40080E5E042A8D0E08F8222AD82AE83AFF074242DFDE43EFE8D828E838FF012705A34
:204B140070047F0180027F008F8222AD82AE83AFF0C0E0C0A8C2AF74242DFAE43EFB8F0472
:204B34008A828B838CF012705AFA74252DFDE43EFE8D828E838FF012705AFDEAB505047F73
:204B54000180027F00D0E053E080E5E042A8D0E08F8222AD82AE83AFF074242DFAE43EFB6F
:204B74008F048A828B838CF012705AFA74252DFDE43EFE8D828E838FF012705AFDEAB50523
:0A4B9400047F0180027F008F82225F
:204B9E00C00CE581F50C2406F581AE82AF83E50C24FBF8B60109E50C2406F876018007E504
:204BBE000C2406F87600E50C24FCF8E60846700AE50C24FCF87601087600A80C0874012E1F
:204BDE00F6E43F08F6A80C08741226FBE40836FC8B828C83126184AA82AB83ACF0E50C2401
:204BFE0003F8A60208A60308A604E50C2403F8E608466050E50C2403F8741226FDE40836C2
:204C1E00FE088607E50C2403F88602088603088604E50C2406F8E6C0E0E50C24FCF8E6C0E0
:204C3E00E008E6C0E0A80C08E6C0E008E6C0E0C005C006C0078A828B838CF01260D6E58182
:204C5E0024F8F581E50C2403F886020886030886048A828B838CF0850C81D00C22AD82AE66
:204C7E0083AFF08D028E038F0474112DFDE43EFE8D828E838FF012705A20E1118A058B06C5
:204C9E008C078D828E838FF012622D80187412C0E0E4C0E0C0E08A828B838CF01266DB1543
:204CBE00811581158122C00C85810CC082C083C0F00581058105817F00C0E0C0A8C2AFA8C2
:204CDE000C08740826FAE40836FB0886048A828B838CF012705AFAA312705AFBA312705AF2
:204CFE00FCEA4B6003024DE2A80C08740B26FAE40836FB0886048A828B838CF012705AFA5B
:204D1E00A312705AFBA312705AFCEA4B6003024DE2A80C08741126FAE40836FB0886048A1D
:204D3E00828B838CF0E50C2404F812705AF6A80C08740626FBE40836FC0886078B828C8340
:204D5E008FF012705AFBA312705AFCA80C08740426FDE40836FE0886078D828E838FF0E5D4
:204D7E000C2405F812705AF6A312705A08F6A80C08740E26FAE40836FE0886078A828E8369
:204D9E008FF012705AFAA312705AFEA312705AFFE50C2404F8E6C0E0C003C004E50C24056D
:204DBE00F8E6C0E008E6C0E0C002C006C007A80C0886820886830886F01260D6E58124F85D
:204DDE00F5817F01D0E053E080E5E042A8D0E08F82850C81D00C22C00C85810CAD82AE839E
:204DFE00AFF0E50C24FCF8E60846700AE50C24FCF8760108760074042DFAE43EFB8F048A68
:204E1E00828B838CF012705AFAA312705AFBE50C24FCF8C3EA96EB0896402074062DFDE45B
:204E3E003EFE8D828E838FF0E50C24FCF8E61266A0A308E61266A07F0180027F008F82D067
:204E5E000C22C00C85810CC082C083C0F005810581A80C08740426FBE40836FA0886048B59
:204E7E00828A838CF012705AFBA312705AFCA80C0886820886830886F012705AFAA3127069
:204E9E005AFFE50C2404F8EA2BF6EF3C08F6A80C08740226FDE40836FE0886078D828E832C
:204EBE008FF012705AFDA312705AFEE50C2404F8E6C39DFD08E69EFEED24FFFFEE34FFFEF3
:204EDE00C3EF9BEE9C4007EFC39BFFEE9CFE8F828E83850C81D00C2212605622C00CE58174
:204EFE00F50C240DF581AD82AE83AFF0E50C2404F8A60508A60608A607E50C2407F8E4F6DA
:204F1E0008F6E50C24F9F8E50C2409F9E6F70809E6F774112DFDE43EFE8D828E838FF0120D
:204F3E00705AFD30E00DE50C2409F8740226F6E40836F6E50C24F7F8E60846700302508D25
:204F5E00E50C240BFFFC7D007E408C828D838EF0C0071212DDD007A80C08A607C0E0C0A831
:204F7E00C2AFE50C2404F886820886830886F0124E60AE82AF83E50C2407F8A60608A60763
:204F9E00E50C2407F8E50C2409F9C3E69708E60997504490000075F0001221E1E50C240444
:204FBE00F8740B26FDE40836FE088607C007C006C005121547AA82AB83ACF0D005D006D053
:204FDE00078D828E838FF0EA1266A0A3EB1266A0A3EC1266A0800ED0E053E080E5E042A81E
:204FFE00D0E002508DD0E053E080E5E042A8D0E0C007C006C005E50C24F7F8E6C0E008E678
:20501E00C0E0E4C0E0C0E0C0E0C0E0C0E0C0E0C0E0900000E4F5F012176DE58124F7F581A8
:20503E00D005D006D0077A007B007C008D828E838FF0EA1266A0A3EB1266A0A3EC1266A071
:20505E00E50C24F7FF7E007D40A80C0886027B007C40C007C006C0058A828B838CF0121364
:20507E004EAF82158115811581EF7003024F7AE50C2407F8E60846701EE50C2404F88682B5
:20509E000886830886F0124E60AE82AF83E50C2407F8A60608A607E50C2409F8E6C0E00828
:2050BE00E6C0E0E50C2407F8E6C0E008E6C0E0E50C24F9F8E6C0E008E6C0E0E50C24FBF802
:2050DE00E6C0E008E6C0E008E6C0E0E50C2404F886820886830886F0125365AE82AF83E557
:2050FE008124F7F581A80C0808A60608A607EE4F70030251D7E50C2404F88682088683084F
:20511E0086F0126056AE82AF83E50C2404F8740626FBE40836FC0886058B828C838DF012C9
:20513E00705AFBA312705AFCC3EE9BEF9C50030251D712094AE50C2404F8740826FBE408BE
:20515E0036FC0886068B828C838EF012705AFAA312705AFDA312705AEA4D605A8B828C83F3
:20517E008EF012705AFAA312705AFDA312705AFFC006C004C003E4C0E0C0E0C0E0C0E0C052
:20519E00E0C0E0C0E0C0E08A828D838FF01219E0E58124F8F581D003D004D0067A007D001F
:2051BE007F008B828C838EF0EA1266A0A3ED1266A0A3EF1266A0120952A80C080886820823
:2051DE008683850C81D00C22C00CE581F50C2405F581AD82AE83AFF0E50C2403F8A6050804
:2051FE00A60608A607E50C24F9F8860408860374112DFDE43EFE8D828E838FF012705A3095
:20521E00E00774022CFCE43BFBE50C2403F886820886830886F0C004C003124E60AE82AF04
:20523E0083C006C007E50C24F9F8E6C0E008E6C0E0E50C24FBF8E6C0E008E6C0E008E6C05C
:20525E00E0E50C2403F886820886830886F0125365AE82AF83E58124F7F581A80C08A6061E
:20527E0008A607EE4F7003025357E50C2403F886820886830886F0126056AE82AF83E50C3D
:20529E002403F8740626FBE40836FC0886058B828C838DF012705AFBA312705AFCC3EE9B4E
:2052BE00EF9C5003025357E50C2403F8740826FBE40836FC0886068B828C838EF012705A71
:2052DE00FAA312705AFDA312705AFFEA4D606A8B828C838EF012705AFAA312705AFDA3121A
:2052FE00705AFFC006C004C003E50C24F6F8E6C0E008E6C0E008E6C0E0E4C0E0C0E0C0E011
:20531E00C0E0C0E0C0E0C0E0C0E08A828D838FF0121CD7E58124F5F581D003D004D0067AC3
:20533E00007D007F008B828C838EF0EA1266A0A3ED1266A0A3EF1266A0A80C088682088613
:20535E0083850C81D00C22C00C85810CC082C083C0F0E50C24F7F8E608467004FC02541774
:20537E00A80C08741126FAE40836FB0886078A828B838FF012705AFA20E0377C01E50C24C4
:20539E00F9F8E50C24F7F9C3E69708E60997500CE50C24F9F88606088607800AE50C24F712
:2053BE00F88606088607E50C24F9F8A60608A6078047E50C24F7F8E50C24F5F9C3E6970839
:2053DE00E6099740327C01E50C24F9FF7E007D40C0047402C0E0E4C0E0C007C006C005A89A
:2053FE000C0886820886830886F0125BF4E58124FBF581D00480027C00EC6039E50C24FB21
:20541E00F88605088606088607E50C24F9F8E6C0E008E6C0E0C005C006C007A80C08868292
:20543E000886830886F0125BF4AE82AF83E58124FBF58180047E007F008E828F83850C814C
:20545E00D00C22C00CE581F50C2409F581AF82AE83ADF0E50C2403F8A60708A60608A60537
:20547E00A80C08E4F608F674112FFBE43EFC8B828C838DF012705AFB30E00CE50C2408F80C
:20549E0076020876008009E50C2408F8E4F608F6E50C24F7F8E6084670030255C3C0E0C05D
:2054BE00A8C2AFE50C2403F886820886830886F0126056AA82AB83E50C2406F8A60208A683
:2054DE0003E50C2406F8E50C2408F9C3E79609E708969200404A90000075F000C020122190
:2054FE00E1D020E50C2403F8740826FAE40836FB088605C005C003C002C020121547AC829B
:20551E00AE83AFF0D020D002D003D0058A828B838DF0EC1266A0A3EE1266A0A3EF1266A045
:20553E00D0E053E080E5E042A8D0E03000030255E1E50C24F7F8E6C0E008E6C0E0E4C0E084
:20555E00C0E0C0E0C0E0C0E0C0E0C0E0900000E4F5F012176DE58124F7F581E50C2403F877
:20557E00740826FDE40836FE0886077A007B007C008D828E838FF0EA1266A0A3EB1266A001
:20559E00A3EC1266A0E50C2403F886820886830886F0126056AE82AF83E50C2406F8A606B6
:2055BE0008A607801EE50C2403F886820886830886F0126056AE82AF83E50C2406F8A606EA
:2055DE0008A607E50C2406F8E50C2408F9C3E79609E7089640030256DBE50C2408F8E6C0D0
:2055FE00E008E6C0E0E50C2406F8E6C0E008E6C0E0E50C24F9F8E6C0E008E6C0E0E50C24C9
:20561E00FBF8E6C0E008E6C0E008E6C0E0E50C2403F886820886830886F0125918AE82AFCE
:20563E0083E58124F7F581A80C08A60608A607EE4F70030256DB12094AE50C2403F8740BDE
:20565E0026FDE40836FE0886078D828E838FF012705AFAA312705AFBA312705AEA4B605AF7
:20567E008D828E838FF012705AFAA312705AFBA312705AFCC007C006C005E4C0E0C0E0C06C
:20569E00E0C0E0C0E0C0E0C0E0C0E08A828B838CF01219E0E58124F8F581D005D006D007D1
:2056BE007A007B007C008D828E838FF0EA1266A0A3EB1266A0A3EC1266A0120952A80C0844
:2056DE008682088683850C81D00C22C00CE581F50C2406F581AD82AE83AFF074112DFAE421
:2056FE003EFB8F048A828B838CF012705AFA20E0030257B68D828E838FF0C007C006C00551
:20571E00126056AB82AC83D005D006D007A80C08A60308A604A80C08C3740296E408965051
:20573E00718D828E838FF0E50C2403F812705AF6A312705A08F6E50C2405FA7B007C40C0D1
:20575E0007C006C005A80C08E6C0E008E6C0E07402C0E0E4C0E0C002C003C0048D828E83C6
:20577E008FF0125E2EE58124F9F581D005D006D007E50C2405F886030886048D828E838F97
:20579E00F0E50C2403F8E61266A0A308E61266A0800A7B007C0080047B007C008B828C832C
:2057BE00850C81D00C22C00CE581F50C2405F581AF82AE83ADF0E50C2403F8A60708A60679
:2057DE0008A605A80C08E4F608F674112FFBE43EFC8B828C838DF012705A30E0067C027D11
:2057FE000080047C007D00E50C2403F886820886830886F0C005C004126056AA82AB83D0EC
:20581E0004D005C3EC9AED9B400302590AC004C005C002C003E50C24F9F8E6C0E008E6C0D0
:20583E00E0E50C24FBF8E6C0E008E6C0E008E6C0E0E50C2403F886820886830886F01259AE
:20585E0018AC82AD83E58124F7F581A80C08A60408A605EC4D700302590AE50C2403F8740F
:20587E000B26FBE40836FC0886058B828C838DF012705AFAA312705AFEA312705AFFEA4E8B
:20589E00606A8B828C838DF012705AFAA312705AFEA312705AFFC005C004C003E50C24F65F
:2058BE00F8E6C0E008E6C0E008E6C0E0E4C0E0C0E0C0E0C0E0C0E0C0E0C0E0C0E08A828EB2
:2058DE00838FF0121CD7E58124F5F581D003D004D0057A007E007F008B828C838DF0EA1226
:2058FE0066A0A3EE1266A0A3EF1266A0A80C088682088683850C81D00C22C00CE581F50C19
:20591E002406F581AD82AE83AFF0E50C24F5F8E6084670030259DE8D828E838FF0A80C088D
:20593E0012705AF6A312705A08F6E50C2405FA7B007C40C007C006C005E50C24F7F8E6C0B3
:20595E00E008E6C0E0E50C24F5F8E6C0E008E6C0E0C002C003C0048D828E838FF0125E2E1F
:20597E00E58124F9F581D005D006D007E50C2405F8E50C2403F9E6F70809E6F7E50C24F794
:20599E00F8E50C24F5F9E6C397F608E60997F6E50C2403F8E50C24F9F9C3E79609E708964F
:2059BE00502E8D828E838FF0A80C08E61266A0A308E61266A0E50C2403F8E4F608F68010D1
:2059DE00E50C24F9F8E50C2403F9E6F70809E6F7E50C24FBF88602088603088604E50C24FF
:2059FE00F7F8E6C0E008E6C0E0E50C2403F8E6C0E008E6C0E0C002C003C0048D828E838F6A
:205A1E00F0125E2EAE82AF83E58124F9F5818E828F83850C81D00C22AD82AE83AFF01270CC
:205A3E005AFBA312705AFC74022DFDE43EFE8D828E838FF012705AFDA312705AFEEDB5031E
:205A5E0008EEB504047F0180027F008F8222AD82AE83AFF074112DFAE43EFB8F048A828BCF
:205A7E00838CF012705A30E0067B027C0080047B007C008D828E838FF0C004C003124E60BD
:205A9E00AE82AF83D003D004C3EB9EEC9F40047F0180027F008F8222C00C85810CAD82AE55
:205ABE0083AFF074082DFDE43EFE8D828E838FF012705AFAA312705AFBA312705AFCEA4B41
:205ADE00606E8D828E838FF012705AFAA312705AFBA312705AFCC007C006C005E50C24FB0E
:205AFE00F8E6C0E008E6C0E008E6C0E0E4C0E0C0E0C0E0C0E0C0E0C0E0C0E0C0E08A828B73
:205B1E00838CF0121CD7E58124F5F581D005D006D0077A007B007C008D828E838FF0EA12E0
:205B3E0066A0A3EB1266A0A3EC1266A07F0180027F008F82D00C22C00C85810CAD82AE8326
:205B5E00AFF0740B2DFDE43EFE8D828E838FF012705AFAA312705AFBA312705AFCEA4B60C0
:205B7E006E8D828E838FF012705AFAA312705AFBA312705AFCC007C006C005E50C24FBF8D5
:205B9E00E6C0E008E6C0E008E6C0E0E4C0E0C0E0C0E0C0E0C0E0C0E0C0E0C0E08A828B8347
:205BBE008CF0121CD7E58124F5F581D005D006D0077A007B007C008D828E838FF0EA12665D
:205BDE00A0A3EB1266A0A3EC1266A07F0180027F008F82D00C22C00C85810CC082C083C007
:205BFE00F0E581240CF581A80C08740226FAE40836FB0886048A828B838CF0E50C2404F8E3
:205C1E0012705AF6A312705A08F6A80C08E50C2406F9740426F7E4083609F70809E6F7E5BD
:205C3E000C2406F886820886830886F0E50C2409F912705AF7A312705A09F7E50C2409F802
:205C5E00E50C2404F9E6C397FE08E60997FFE50C24F9F8C3EE96EF08965015E50C2409F8F4
:205C7E00E50C2404F9E6C397FE08E60997FF800AE50C24F9F88606088607C002C003C0042F
:205C9E00E50C240EF8A60608A607E50C24FBF88603088604088605A80C08E50C240BF9746B
:205CBE000E26F7E4083609F70809E6F7E50C240BF886820886830886F012705AFAA31270E1
:205CDE005AFEA312705AFFE50C2404F8E62AFA08E63EFEC004C003C002E50C240EF8E6C081
:205CFE00E008E6C0E0C003C004C0058A828E838FF0126703E58124FBF581D002D003D00440
:205D1E00E50C24F9F8E50C240EF9C3E79609E70896D004D003D0024003025DC7C002C0030E
:205D3E00C004E50C24F9F8E50C240EF9E6C397C0E008E60997C0E0E50C240AF8D0E0F6187C
:205D5E00D0E0F6E50C24FBF8E50C240EF9E726FB09E708360886057D007C40E50C240BF841
:205D7E0086820886830886F012705AFAA312705AFEA312705AFFC004C003C002E50C240936
:205D9E00F8E6C0E008E6C0E0C003C005C0048A828E838FF0126703E58124FBF581D002D0D8
:205DBE0003D004D004D003D002E50C2404F8E50C24F9F9E726FE09E70836FFE50C2406F812
:205DDE0086820886830886F0E50C240BF912705AF7A312705A09F7E50C240BF8C3EE96EF55
:205DFE000896400DE50C240BF8EEC396FEEF0896FF8A828B838CF0EE1266A0A3EF1266A06B
:205E1E00E50C24F9F88682088683850C81D00C22C00C85810CC082C083C0F0E581240CF597
:205E3E0081E50C24F7F8E50C24F9F9C3E69708E60997500CE50C24F7F88603088604800AE5
:205E5E00E50C24F9F88603088604E50C240CF8A60308A604E50C240CF8E60846700302606D
:205E7E0046A80C0886820886830886F012705AFAA312705AFCA80C08E50C2404F9740426AE
:205E9E00F7E4083609F70809E6F7E50C2404F886820886830886F012705AFEA312705AFDDF
:205EBE00EEC39AFBED9CFFE50C240CF8C3EB96EF08965009EEC39AFEED9CFF800AE50C2443
:205EDE000CF88606088607E50C240EF8A60608A607A80C08E50C2409F9740E26F7E408366F
:205EFE0009F70809E6F7E50C2409F886820886830886F012705AFDA312705AFEA312705A14
:205F1E00FFEA2DFDEC3EFEC002C004E50C24FBF88602088603088604C004C002E50C240E46
:205F3E00F8E6C0E008E6C0E0C005C006C0078A828B838CF0126703E58124FBF581D002D036
:205F5E0004E50C240CF8E50C240EF9C3E79609E70896D004D0024003025FFEC002C004E569
:205F7E000C240CF8E50C240EF9E6C397C0E008E60997C0E0E50C2408F8D0E0F618D0E0F62C
:205F9E00E50C2409F886820886830886F012705AFBA312705AFCA312705AFDE50C24FBF860
:205FBE00E50C240EF9E726FA09E708360886077F007E40C004C002E50C2407F8E6C0E00878
:205FDE00E6C0E0C003C004C0058A828F838EF0126703E58124FBF581D002D004D004D00272
:205FFE00E50C240CF8E62AFA08E63CFC8A078C06E50C2404F886820886830886F012705A93
:20601E00FCA312705AFDC3EF9CEE9D4007EFC39CFFEE9DFEA80C0886820886830886F0EFB2
:20603E001266A0A3EE1266A0E50C240CF88682088683850C81D00C22C00C85810CC082C05F
:20605E0083C0F0A80C08740426FBE40836FA0886048B828A838CF012705AFBA312705AFC04
:20607E00A80C08740226FAE40836FE0886078A828E838FF012705AFAA312705AFEEA2BFAFD
:20609E00EE3CFEA80C0886820886830886F012705AFDA312705AFFEAC39DFDEE9FFF8D06AA
:2060BE00C3EE9BEF9C4007EEC39BFEEF9CFF8E828F83850C81D00C22C00C85810CAD82AEE3
:2060DE0083AFF08D028E038F04C007C006C0057412C0E0E4C0E0C0E08A828B838CF0126623
:2060FE00DB158115811581D005D006D007740E2DFAE43EFB8F048A828B838CF0E50C24FB64
:20611E00F8E61266A0A308E61266A0A308E61266A074042DFAE43EFB8F048A828B838CF034
:20613E00E50C24F9F8E61266A0A308E61266A074062DFAE43EFB8F048A828B838CF0E50CBC
:20615E0024F7F8E61266A0A308E61266A074112DFDE43EFE8D828E838FF0E50C24F6F8E610
:06617E001266A0D00C2205
:1000B200901877E4F0A3F0A3F0901875E4F0A3F0A1
:20618400C00C85810CC082C083058105810581E50C2403F8E4F608F608760012094A901893
:2061A40077E0F5F0A3E045F070117A767D00FEFF901877EAF0EDA3F0EEA3F0901875E0FE07
:2061C400A3E0FFA80C08E62EFC08E63FFDC3EC94FFED9417503DA80C08E62EFC08E63FFDE6
:2061E400C3EE9CEF9D502C901877E0FBA3E0FCA3E0FDEE2BFBEF3CFCE50C2403F8A6030851
:20620400A60408A605A80C08901875E62EF008E63FA3F0120952E50C2403F88682088683EA
:206224000886F0850C81D00C2222901875E4F0A3F022901875E0FEA3E0FF74FFC39EFE7441
:07624400179F8E82F58322F3
:20624B00C00CE581F50C240EF581AD82AE83AFF0E50C240CF8A60508A60608A607A80C0870
:20626B0074012DF6E43E08F608A607E50C24FCF886020886037C807F008A06A80C088682B5
:20628B000886830886F0EE1266A0E50C2404F8A60308A60408A607087600A80C0874012668
:2062AB00FDE40836FE088607E50C2404F886028D828E838FF0EA1266A00DBD00010E8D82FF
:2062CB008E838FF074AA1266A00DBD00010E8D828E838FF074801266A0E50C2404F87401E3
:2062EB002DF6E43E08F608A607E50C24F9F886020886030886047F008A06E50C2404F88644
:20630B00820886830886F0EE1266A0E50C2408F8A60308A60408A607087600E50C2404F8A7
:20632B00740126FDE40836FE088607E50C2408F886028D828E838FF0EA1266A0E50C2408AA
:20634B00F808E618F60808E618F60808E618F60876000DBD00010EE50C2408F886028D8233
:20636B008E838FF0EA1266A00DBD00010E8D828E838FF074021266A00DBD00010E8D828E04
:20638B00838FF074031266A00DBD00010E8D828E838FF074041266A00DBD00010E8D828EE3
:2063AB00838FF074051266A00DBD00010E8D828E838FF074061266A00DBD00010E8D828EBF
:2063CB00838FF074071266A00DBD00010E8D828E838FF0E41266A00DBD00010E8D828E83B0
:2063EB008FF074011266A00DBD00010E8D828E838FF0E41266A00DBD00010E8D828E838F8A
:20640B00F074BB1266A0E50C240CF8EDC396FDEE0896E50C240CF886820886830886F0EDB5
:20642B001266A0E50C240CF886820886830886F0850C81D00C22126676900009E0FDA3E092
:20644B00FEA3E0FF8D828E838FF012705AF509A312705AF50A750B0D850982850A83E0F536
:20646B00080509E4B50902050A050BA90B850982850A83E0FFF7D508E8850B81D00CD0D03A
:20648B00D001D000D007D006D005D004D003D002D0F0D083D082D0E020E705C2AF0264ADB0
:2064AB00D2AFD0E0327582012222C0E0C0A8C2AFC082C083C0F0C002C003C004C005C006B0
:2064CB00C007C000C001C0D075D000C00C900009E0FDA3E0FEA3E0FF8D828E838FF012702E
:2064EB005AF509A312705AF50A750B0EE581FF24F3F508850982850A83F0E508601905092E
:20650B00E4B50902050A850982850A83A90BE7FFF0050B150880E3120E13900009E0FDA335
:20652B00E0FEA3E0FF8D828E838FF012705AF509A312705AF50A750B0D850982850A83E06A
:20654B00F5080509E4B50902050A050BA90B850982850A83E0FFF7D508E8850B81D00CD034
:20656B00D0D001D000D007D006D005D004D003D002D0F0D083D082D0E020E705C2AF0265AB
:20658B008ED2AFD0E032C0E0C0A8C2AFC082C083C0F0C002C003C004C005C006C007C000F6
:2065AB00C001C0D075D000C00C900009E0FDA3E0FEA3E0FF8D828E838FF012705AF509A3D9
:2065CB0012705AF50A750B0EE581FF24F3F508850982850A83F0E50860190509E4B50902A4
:2065EB00050A850982850A83A90BE7FFF0050B150880E3120B66E5826003120E13D28890DB
:20660B000009E0FDA3E0FEA3E0FF8D828E838FF012705AF509A312705AF50A750B0D850974
:20662B0082850A83E0F5080509E4B50902050A050BA90B850982850A83E0FFF7D508E88517
:20664B000B81D00CD0D0D001D000D007D006D005D004D003D002D0F0D083D082D0E020E76F
:20666B0005C2AF026673D2AFD0E032758FFC758E18D28CD288D2A9D2AFD28D22AF82309C0E
:15668B00FD8F99BF0A06309CFD75990D22309DFDAF998F8222BB
:06004C00E4787FF6D8FD08
:1B66A00020F71130F6138883A88220F509F6A8837583002280FEF280F5F022F9
:2066BB00AA83AB828BF090187BE0A4F8A9F08AF0E0A429F98BF0A3E0A429F5838882222201
:2066DB00AC82AD8390187EE0FEA3E0FFBE000360121F0F90187DE08C828D831266A0A3DE9E
:0866FB00FADFF88C828D832286
:20670300AFF0AE83E582901885F0EEA3F0EFA3F0901885E0F513A3E0F514A3E0F515AA1334
:20672300AB14AC15901880E0F8A3E0F9A3E0FF901883E0F516A3E0F517AD16AE171516740C
:20674300FFB516021517ED4E6020888289838FF012705AFEA3A882A9838A828B838CF0EE97
:146763001266A0A3AA82AB8380CF8513828514838515F022DC
:20677700C00C85810C7E008E83126687D00C22AFF0AE83E582901889F0EEA3F0EFA3F090AD
:206797001889E0FDA3E0FEA3E0FF901888E0FC90189DE4F0A3F0A3F09018A0EDF0EEA3F070
:2067B700EFA3F09018A3ECF09067770268D5C00C85810CE50C24FBFF90189DE4F0A3F0A330
:2067D700F0E50C24FBF89018A0E6F008E6A3F008E6A3F09018A3EFF09067771268D5D00CC7
:0167F700227F
:2067F800E582901899F0E0FF90188FE0C0E0A3E0C0E0A3E0C0E0126813800D90188DE0C01E
:20681800E0A3E0C0E08F8222158115811581901897E02401F0A3E03400F022E58290189AC2
:20683800F0E02430FF24C6501374072FFF90188CE060098F057E004305208D078F82026722
:20685800F8E58290189BF0E0FFC4540FF582C007126833D00753070F8F82026833E58290B8
:20687800189CF0901892E0FCA3E0FDA3E0FEA3E0FF901896E0FB75132090189CE0F98B005A
:20689800E828F8EF23540148FBEC2CFCED33FDEE33FEEF33FFC3EB994007EBC399FB4304A6
