:0400000002001132B7
:03000B000201C02F
:03006D0002000E80
:03000E000200707D
:200070001200DF74B8C0E0740AC0E07480C0E01202F615811581158174BBC0E0740AC0E048
:200090007480C0E01202F615811581158174DDC0E0740AC0E07480C0E01202F61581158117
:2000B0001581120101AC82AD83AEF0FF7537E8753803E4F539F53A8C828D838EF0EF120168
:0F00D000FBAC82AD83AEF0FF8C908D8080D4228C
:200AB8000A0D004C6967687435322070726F6A656374202D2D2041756720323020323031A5
:190AD800380A0A0D004C454420626C696E6B657220746573742E0A0D00AB
:03006A00750C0012
:2000DF00E4F508F509F50AF50B90C35012016E7582011201B77582011201657582011201C2
:2000FF008722120190AE82AF837D007C00753732E4F538F539F53A8E828F838DF0EC120150
:20011F00FBAC82AD83AEF0FF850837850938850A39850B3A9003E8E4F5F0C007C006C00518
:20013F00C004120260A882A983AAF0FBD004D005D006D007E82CFCE93DFDEA3EFEEB3F8C18
:20015F00828D838EF022E582540124FF92AF22AE82AF83BEFF05BFFF0280088F8F8E8ED294
:20017F008C8002C28CD28822E582540124FF928D22858D37858C38858C39E539B5380280FF
:20019F0006858D37858C38AF377E00AC387D00EC4EF582ED4FF58322E582540124FF92A942
:2001BF0022C0E0C0D0D288850C90050C74012508F508E43509F509E4350AF50AE4350BF548
:1C01DF000BD0D0D0E032AE82AF83309CFD8E99BE0A09BF0006309CFD75990D2289
:2001FB00FB7A20E4FCFDFEFFE5822582F582E58333F583E5F033F5F0EB33FB4017DAE9803D
:20021B0042E5822582F582E58333F583E5F033F5F0EB33FBEC33FCED33FDEE33FEEF33FF6B
:20023B00EC9537ED9538EE9539EF953A4013EC9537FCED9538FDEE9539FEEF953AFF4382BD
:05025B0001DABEEB22F8
:06004000E478FFF6D8FD94
:20001E007900E94400601B7A00900AFC780175A000E493F2A308B8000205A0D9F4DAF27582
:02003E00A0FF21
:20026000AAF0FBE5828537F0A4FCADF0E5838537F0A42DFDE435F0FEE5828538F0A42DFDCE
:20028000E5F03EFEE433FFEA8537F0A42EFEE5F03FFFE5838538F0A42EFEE5F03FFFE5825F
:2002A0008539F0A42EFEE5F03FFFEB8537F0A42FFFEA8538F0A42FFFE5838539F0A42FFFF3
:0E02C000E582853AF0A42F8EF08D838C822289
:200046007800E84400600A790175A000E4F309D8FC7800E84400600C7900900001E4F0A3B8
:04006600D8FCD9FAEF
:2002CE00C0368581367E008E831201E5D0362285821E85831F85F020E4F51BF51CF51D85B2
:2002EE000D219002CE0203C3C036858136E53624FBFF8F21E4F51BF51CF51DE53624FBF836
:11030E00861E08861F0886209002CE1203C3D036227F
:20031F00AF82C011C012C01312032C8007C00FC0108F82221581158115810519E4B51902E9
:20033F00051A22AF8274302FFF24C6501174072FFFE50E60098F057E004305208D078F82EB
:20035F0002031FE582FFC4540FF582C007120342D007740F5FF582020342858237AB14AC18
:20037F0015AD16AE17AA187539208A07EF2FF538EE2354014538FAEB2BFBEC33FCED33FD2F
:20039F00EE33FEC3EA95374008EAC39537FA430301E53914FF8F3970D18B148C158D168EF9
:2003BF00178A182285820F858310851B11851C12851D13E4F519F51AAD1EAE1FAF208D8285
:2003DF008E838FF0120A98FC74012DF51EE43EF51F8F20ECFF7003020A79BF2502800302D6
:2003FF000A717E007D008E228E237A007B008E247C008E258E2B7526FF851E2C851F2D85B9
:20041F00202E852C82852D83852EF0120A98F52FA385822C85832D852C1E852D1F852E200E
:20043F007425B52F08852F8212031F808B74D0252F5039E52F24C6403374FFB5261AE52B99
:20045F00F53075F00AA4F530E52FF531253024D0F52B70AE7D0180AAE52675F00AA4F53173
:20047F00E52FF530253124D0F5268096742EB52F0A74FFB5268C7526008087749F252F50E6
:20049F000EE52F24854008532FDF750E018003750E007420B52F0302054C742BB52F0302E9
:2004BF000546742DB52F0280797442B52F030205527443B52F0302055D7444B52F030207B2
:2004DF006E7446B52F030207847448B52F030204217449B52F0302076E744AB52F030204D1
:2004FF0021744CB52F028050744FB52F030207757450B52F030206B97453B52F028076749B
:20051F0054B52F030204217455B52F0302077A7458B52F0302077F745AB52F03020421020E
:20053F0007887E010204217522010204217523010204217B01020421752401020421EB6039
:20055F000AE52114F989218731800DE52124FEF530853021A9308731853182C006C005C039
:20057F0004C003C00212031FD002D003D004D005D0060207A7E52124FDF531853121A931CD
:20059F00872C09872D09872E1919852C14852D15852E16852C82852D83852EF0C006C005F1
:2005BF00C004C003C002120A8085822C85832DD002D003D004D005D006852C3174FFB5267B
:2005DF0003853126EE7036C3E531952B502FE52BC39531F53085302C1530E52C601C758209
:2005FF0020C006C005C004C003C00212031FD002D003D004D005D00680DB85302B8526307A
:20061F008514828515838516F0120A98F52C852C28604885302C1530C37480852CF063F0D1
:20063F008095F05036852882C006C005C004C003C00212031FD002D003D004D005D0068530
:20065F00142C85152D85162E052CE4B52C02052D852C14852D15852E1680A5EE700302079D
:20067F00A7C3E531952B40030207A7E52BC39531F5318531301531E53070030207A4758211
:20069F0020C006C005C004C003C00212031FD002D003D004D005D00680D8E52124FDF5304B
:2006BF00853021A930872C09872D09872E1919852C14852D15852E16851629748025295061
:2006DF0005753043801974A025295005753050800E74C02529500575304980037530588571
:2006FF003082C006C005C004C003C00212031F75823A12031F75823012031F7582781203DD
:20071F001FD002D003D004D005D0067449B5300280217450B53002801A851582C006C00546
:20073F00C004C003C002120362D002D003D004D005D006851482C006C005C004C003C002C7
:20075F00120362D002D003D004D005D00680397A0175250A8032752508802D75250A8028BA
:20077F0075251080237C01801F852F82C006C005C004C003C00212031FD002D003D004D06A
:20079F0005D006800385312BEC6068E52124FCFC8C218C01873209873309873409873519CD
:2007BF0019198532148533158534168535177514F175150A75168085143285153385163430
:2007DF0074012532F52CE43533F52D85342E852C14852D15852E168532828533838534F046
:2007FF00120A98FC8C3270030203D785328212031F80C4E52570030203D7EB603FE521146F
:20081F00F9892187048C32753300753400753500853214853315853416853517EA6003024B
:20083F0008C48514327533007534007535008532148533158534168535178069E524602558
:20085F00E52124FCFC8C218C01873209873309873409873519191985321485331585341666
:20087F008535178040E52124FEFC8C218C018703098704198B32ECF5333395E0F534F53567
:20089F00853214853315853416853517EA7016851432851533F534F5358532148533158589
:2008BF003416853517EA602AE51730E723C3E49514F532E49515F533E49516F534E49517DF
:2008DF00F53585321485331585341685351780027A007C0179407B00751800852582C0066B
:2008FF00C005C004C003C002C001120379D001D002D003D004D005D006EC7010C003E5185B
:20091F00C4F532E74532F719D0038002A7180BECB40100E433FCE51445154516451770B85A
:20093F00892A8B27E52B7003752B01ED702CEE7029852B32AB270BC3EB9532501A7582204A
:20095F00C006C005C004C00212031FD002D004D005D006153280DD85322BEA601675822DD8
:20097F00C006C005C00412031FD004D005D006152B8036E5276032E522601675822BC0065D
:20099F00C005C00412031FD004D005D006152B8018E5236014758220C006C005C00412032D
:2009BF001FD004D005D006152BEE7034AB2B8B021BC3E5279A503CED600875323075330061
:2009DF008006753220753300853282C006C005C004C00312031FD003D004D005D00680CEE4
:2009FF00C3E527952B5008E52BC39527FD80067D0080028B05A92AAB278B021BEA6036EC97
:200A1F00B40100E433FC700A09E7C4540FFA8A1880078702740F5AF518851882C006C0051E
:200A3F00C004C003C001120342D001D003D004D005D00680C4EE70030203D78D068E051E10
:200A5F00ED70030203D7758220C00612031FD00680EB8F8212031F0203D7851982851A8386
:010A7F002254
:0B0AF1003C4E4F20464C4F41543E004D
:180A8000AA82AB83120A986003A380F8C3E5829AF582E5839BF58322FA
:0D001100758140120AB4E582600302000E02
:1C0A980020F71430F6148883A88220F507E6A88375830022E280F7E49322E0226D
:040AB4007582002225
:00000001FF
